{
  "_format": "hh-sol-artifact-1",
  "contractName": "CourseFactory",
  "sourceName": "contracts/CourseFactory.sol",
  "abi": [
    {
      "inputs": [
        {
          "internalType": "address",
          "name": "_feeCollector",
          "type": "address"
        }
      ],
      "stateMutability": "nonpayable",
      "type": "constructor"
    },
    {
      "inputs": [
        {
          "internalType": "address",
          "name": "sender",
          "type": "address"
        },
        {
          "internalType": "uint256",
          "name": "tokenId",
          "type": "uint256"
        },
        {
          "internalType": "address",
          "name": "owner",
          "type": "address"
        }
      ],
      "name": "ERC721IncorrectOwner",
      "type": "error"
    },
    {
      "inputs": [
        {
          "internalType": "address",
          "name": "operator",
          "type": "address"
        },
        {
          "internalType": "uint256",
          "name": "tokenId",
          "type": "uint256"
        }
      ],
      "name": "ERC721InsufficientApproval",
      "type": "error"
    },
    {
      "inputs": [
        {
          "internalType": "address",
          "name": "approver",
          "type": "address"
        }
      ],
      "name": "ERC721InvalidApprover",
      "type": "error"
    },
    {
      "inputs": [
        {
          "internalType": "address",
          "name": "operator",
          "type": "address"
        }
      ],
      "name": "ERC721InvalidOperator",
      "type": "error"
    },
    {
      "inputs": [
        {
          "internalType": "address",
          "name": "owner",
          "type": "address"
        }
      ],
      "name": "ERC721InvalidOwner",
      "type": "error"
    },
    {
      "inputs": [
        {
          "internalType": "address",
          "name": "receiver",
          "type": "address"
        }
      ],
      "name": "ERC721InvalidReceiver",
      "type": "error"
    },
    {
      "inputs": [
        {
          "internalType": "address",
          "name": "sender",
          "type": "address"
        }
      ],
      "name": "ERC721InvalidSender",
      "type": "error"
    },
    {
      "inputs": [
        {
          "internalType": "uint256",
          "name": "tokenId",
          "type": "uint256"
        }
      ],
      "name": "ERC721NonexistentToken",
      "type": "error"
    },
    {
      "inputs": [
        {
          "internalType": "address",
          "name": "owner",
          "type": "address"
        }
      ],
      "name": "OwnableInvalidOwner",
      "type": "error"
    },
    {
      "inputs": [
        {
          "internalType": "address",
          "name": "account",
          "type": "address"
        }
      ],
      "name": "OwnableUnauthorizedAccount",
      "type": "error"
    },
    {
      "anonymous": false,
      "inputs": [
        {
          "indexed": true,
          "internalType": "address",
          "name": "owner",
          "type": "address"
        },
        {
          "indexed": true,
          "internalType": "address",
          "name": "approved",
          "type": "address"
        },
        {
          "indexed": true,
          "internalType": "uint256",
          "name": "tokenId",
          "type": "uint256"
        }
      ],
      "name": "Approval",
      "type": "event"
    },
    {
      "anonymous": false,
      "inputs": [
        {
          "indexed": true,
          "internalType": "address",
          "name": "owner",
          "type": "address"
        },
        {
          "indexed": true,
          "internalType": "address",
          "name": "operator",
          "type": "address"
        },
        {
          "indexed": false,
          "internalType": "bool",
          "name": "approved",
          "type": "bool"
        }
      ],
      "name": "ApprovalForAll",
      "type": "event"
    },
    {
      "anonymous": false,
      "inputs": [
        {
          "indexed": true,
          "internalType": "uint256",
          "name": "courseId",
          "type": "uint256"
        },
        {
          "indexed": false,
          "internalType": "bool",
          "name": "isActive",
          "type": "bool"
        }
      ],
      "name": "CourseActivationChanged",
      "type": "event"
    },
    {
      "anonymous": false,
      "inputs": [
        {
          "indexed": true,
          "internalType": "uint256",
          "name": "courseId",
          "type": "uint256"
        },
        {
          "indexed": false,
          "internalType": "address",
          "name": "creator",
          "type": "address"
        },
        {
          "indexed": false,
          "internalType": "address",
          "name": "courseTokenAddress",
          "type": "address"
        }
      ],
      "name": "CourseCreated",
      "type": "event"
    },
    {
      "anonymous": false,
      "inputs": [
        {
          "indexed": true,
          "internalType": "uint256",
          "name": "courseId",
          "type": "uint256"
        }
      ],
      "name": "CourseUpdated",
      "type": "event"
    },
    {
      "anonymous": false,
      "inputs": [
        {
          "indexed": true,
          "internalType": "address",
          "name": "previousOwner",
          "type": "address"
        },
        {
          "indexed": true,
          "internalType": "address",
          "name": "newOwner",
          "type": "address"
        }
      ],
      "name": "OwnershipTransferred",
      "type": "event"
    },
    {
      "anonymous": false,
      "inputs": [
        {
          "indexed": true,
          "internalType": "address",
          "name": "from",
          "type": "address"
        },
        {
          "indexed": true,
          "internalType": "address",
          "name": "to",
          "type": "address"
        },
        {
          "indexed": true,
          "internalType": "uint256",
          "name": "tokenId",
          "type": "uint256"
        }
      ],
      "name": "Transfer",
      "type": "event"
    },
    {
      "inputs": [
        {
          "internalType": "address",
          "name": "to",
          "type": "address"
        },
        {
          "internalType": "uint256",
          "name": "tokenId",
          "type": "uint256"
        }
      ],
      "name": "approve",
      "outputs": [],
      "stateMutability": "nonpayable",
      "type": "function"
    },
    {
      "inputs": [
        {
          "internalType": "address",
          "name": "owner",
          "type": "address"
        }
      ],
      "name": "balanceOf",
      "outputs": [
        {
          "internalType": "uint256",
          "name": "",
          "type": "uint256"
        }
      ],
      "stateMutability": "view",
      "type": "function"
    },
    {
      "inputs": [
        {
          "internalType": "uint256",
          "name": "",
          "type": "uint256"
        }
      ],
      "name": "courses",
      "outputs": [
        {
          "internalType": "uint256",
          "name": "id",
          "type": "uint256"
        },
        {
          "internalType": "string",
          "name": "title",
          "type": "string"
        },
        {
          "internalType": "string",
          "name": "description",
          "type": "string"
        },
        {
          "internalType": "uint256",
          "name": "duration",
          "type": "uint256"
        },
        {
          "internalType": "uint256",
          "name": "price",
          "type": "uint256"
        },
        {
          "internalType": "address",
          "name": "creator",
          "type": "address"
        },
        {
          "internalType": "address",
          "name": "courseTokenAddress",
          "type": "address"
        },
        {
          "internalType": "uint256",
          "name": "creationTime",
          "type": "uint256"
        },
        {
          "internalType": "uint256",
          "name": "learnersCount",
          "type": "uint256"
        },
        {
          "internalType": "bool",
          "name": "isActive",
          "type": "bool"
        }
      ],
      "stateMutability": "view",
      "type": "function"
    },
    {
      "inputs": [
        {
          "internalType": "string",
          "name": "title",
          "type": "string"
        },
        {
          "internalType": "string",
          "name": "description",
          "type": "string"
        },
        {
          "internalType": "uint256",
          "name": "duration",
          "type": "uint256"
        },
        {
          "internalType": "string",
          "name": "industry",
          "type": "string"
        },
        {
          "internalType": "uint256",
          "name": "basePrice",
          "type": "uint256"
        }
      ],
      "name": "createCourse",
      "outputs": [
        {
          "internalType": "uint256",
          "name": "",
          "type": "uint256"
        }
      ],
      "stateMutability": "nonpayable",
      "type": "function"
    },
    {
      "inputs": [
        {
          "internalType": "address",
          "name": "",
          "type": "address"
        },
        {
          "internalType": "uint256",
          "name": "",
          "type": "uint256"
        }
      ],
      "name": "creatorCourses",
      "outputs": [
        {
          "internalType": "uint256",
          "name": "",
          "type": "uint256"
        }
      ],
      "stateMutability": "view",
      "type": "function"
    },
    {
      "inputs": [
        {
          "internalType": "address",
          "name": "",
          "type": "address"
        }
      ],
      "name": "creatorReputationMap",
      "outputs": [
        {
          "internalType": "uint256",
          "name": "",
          "type": "uint256"
        }
      ],
      "stateMutability": "view",
      "type": "function"
    },
    {
      "inputs": [],
      "name": "feeCollector",
      "outputs": [
        {
          "internalType": "address",
          "name": "",
          "type": "address"
        }
      ],
      "stateMutability": "view",
      "type": "function"
    },
    {
      "inputs": [
        {
          "internalType": "uint256",
          "name": "tokenId",
          "type": "uint256"
        }
      ],
      "name": "getApproved",
      "outputs": [
        {
          "internalType": "address",
          "name": "",
          "type": "address"
        }
      ],
      "stateMutability": "view",
      "type": "function"
    },
    {
      "inputs": [
        {
          "internalType": "uint256",
          "name": "courseId",
          "type": "uint256"
        }
      ],
      "name": "getCourse",
      "outputs": [
        {
          "components": [
            {
              "internalType": "uint256",
              "name": "id",
              "type": "uint256"
            },
            {
              "internalType": "string",
              "name": "title",
              "type": "string"
            },
            {
              "internalType": "string",
              "name": "description",
              "type": "string"
            },
            {
              "internalType": "uint256",
              "name": "duration",
              "type": "uint256"
            },
            {
              "internalType": "uint256",
              "name": "price",
              "type": "uint256"
            },
            {
              "internalType": "address",
              "name": "creator",
              "type": "address"
            },
            {
              "internalType": "address",
              "name": "courseTokenAddress",
              "type": "address"
            },
            {
              "internalType": "uint256",
              "name": "creationTime",
              "type": "uint256"
            },
            {
              "internalType": "uint256",
              "name": "learnersCount",
              "type": "uint256"
            },
            {
              "internalType": "bool",
              "name": "isActive",
              "type": "bool"
            }
          ],
          "internalType": "struct CourseFactory.Course",
          "name": "",
          "type": "tuple"
        }
      ],
      "stateMutability": "view",
      "type": "function"
    },
    {
      "inputs": [
        {
          "internalType": "address",
          "name": "creator",
          "type": "address"
        }
      ],
      "name": "getCreatorCourses",
      "outputs": [
        {
          "internalType": "uint256[]",
          "name": "",
          "type": "uint256[]"
        }
      ],
      "stateMutability": "view",
      "type": "function"
    },
    {
      "inputs": [
        {
          "internalType": "string",
          "name": "",
          "type": "string"
        }
      ],
      "name": "industryCoefficientMap",
      "outputs": [
        {
          "internalType": "uint256",
          "name": "",
          "type": "uint256"
        }
      ],
      "stateMutability": "view",
      "type": "function"
    },
    {
      "inputs": [
        {
          "internalType": "address",
          "name": "owner",
          "type": "address"
        },
        {
          "internalType": "address",
          "name": "operator",
          "type": "address"
        }
      ],
      "name": "isApprovedForAll",
      "outputs": [
        {
          "internalType": "bool",
          "name": "",
          "type": "bool"
        }
      ],
      "stateMutability": "view",
      "type": "function"
    },
    {
      "inputs": [],
      "name": "name",
      "outputs": [
        {
          "internalType": "string",
          "name": "",
          "type": "string"
        }
      ],
      "stateMutability": "view",
      "type": "function"
    },
    {
      "inputs": [],
      "name": "owner",
      "outputs": [
        {
          "internalType": "address",
          "name": "",
          "type": "address"
        }
      ],
      "stateMutability": "view",
      "type": "function"
    },
    {
      "inputs": [
        {
          "internalType": "uint256",
          "name": "tokenId",
          "type": "uint256"
        }
      ],
      "name": "ownerOf",
      "outputs": [
        {
          "internalType": "address",
          "name": "",
          "type": "address"
        }
      ],
      "stateMutability": "view",
      "type": "function"
    },
    {
      "inputs": [],
      "name": "platformFeeRate",
      "outputs": [
        {
          "internalType": "uint256",
          "name": "",
          "type": "uint256"
        }
      ],
      "stateMutability": "view",
      "type": "function"
    },
    {
      "inputs": [],
      "name": "renounceOwnership",
      "outputs": [],
      "stateMutability": "nonpayable",
      "type": "function"
    },
    {
      "inputs": [
        {
          "internalType": "address",
          "name": "from",
          "type": "address"
        },
        {
          "internalType": "address",
          "name": "to",
          "type": "address"
        },
        {
          "internalType": "uint256",
          "name": "tokenId",
          "type": "uint256"
        }
      ],
      "name": "safeTransferFrom",
      "outputs": [],
      "stateMutability": "nonpayable",
      "type": "function"
    },
    {
      "inputs": [
        {
          "internalType": "address",
          "name": "from",
          "type": "address"
        },
        {
          "internalType": "address",
          "name": "to",
          "type": "address"
        },
        {
          "internalType": "uint256",
          "name": "tokenId",
          "type": "uint256"
        },
        {
          "internalType": "bytes",
          "name": "data",
          "type": "bytes"
        }
      ],
      "name": "safeTransferFrom",
      "outputs": [],
      "stateMutability": "nonpayable",
      "type": "function"
    },
    {
      "inputs": [
        {
          "internalType": "address",
          "name": "operator",
          "type": "address"
        },
        {
          "internalType": "bool",
          "name": "approved",
          "type": "bool"
        }
      ],
      "name": "setApprovalForAll",
      "outputs": [],
      "stateMutability": "nonpayable",
      "type": "function"
    },
    {
      "inputs": [
        {
          "internalType": "string",
          "name": "baseURI",
          "type": "string"
        }
      ],
      "name": "setBaseURI",
      "outputs": [],
      "stateMutability": "nonpayable",
      "type": "function"
    },
    {
      "inputs": [
        {
          "internalType": "address",
          "name": "creator",
          "type": "address"
        },
        {
          "internalType": "uint256",
          "name": "reputation",
          "type": "uint256"
        }
      ],
      "name": "setCreatorReputation",
      "outputs": [],
      "stateMutability": "nonpayable",
      "type": "function"
    },
    {
      "inputs": [
        {
          "internalType": "string",
          "name": "industry",
          "type": "string"
        },
        {
          "internalType": "uint256",
          "name": "coefficient",
          "type": "uint256"
        }
      ],
      "name": "setIndustryCoefficient",
      "outputs": [],
      "stateMutability": "nonpayable",
      "type": "function"
    },
    {
      "inputs": [
        {
          "internalType": "uint256",
          "name": "newRate",
          "type": "uint256"
        }
      ],
      "name": "setPlatformFeeRate",
      "outputs": [],
      "stateMutability": "nonpayable",
      "type": "function"
    },
    {
      "inputs": [
        {
          "internalType": "bytes4",
          "name": "interfaceId",
          "type": "bytes4"
        }
      ],
      "name": "supportsInterface",
      "outputs": [
        {
          "internalType": "bool",
          "name": "",
          "type": "bool"
        }
      ],
      "stateMutability": "view",
      "type": "function"
    },
    {
      "inputs": [],
      "name": "symbol",
      "outputs": [
        {
          "internalType": "string",
          "name": "",
          "type": "string"
        }
      ],
      "stateMutability": "view",
      "type": "function"
    },
    {
      "inputs": [
        {
          "internalType": "uint256",
          "name": "courseId",
          "type": "uint256"
        }
      ],
      "name": "toggleCourseActivation",
      "outputs": [],
      "stateMutability": "nonpayable",
      "type": "function"
    },
    {
      "inputs": [
        {
          "internalType": "uint256",
          "name": "tokenId",
          "type": "uint256"
        }
      ],
      "name": "tokenURI",
      "outputs": [
        {
          "internalType": "string",
          "name": "",
          "type": "string"
        }
      ],
      "stateMutability": "view",
      "type": "function"
    },
    {
      "inputs": [
        {
          "internalType": "address",
          "name": "from",
          "type": "address"
        },
        {
          "internalType": "address",
          "name": "to",
          "type": "address"
        },
        {
          "internalType": "uint256",
          "name": "tokenId",
          "type": "uint256"
        }
      ],
      "name": "transferFrom",
      "outputs": [],
      "stateMutability": "nonpayable",
      "type": "function"
    },
    {
      "inputs": [
        {
          "internalType": "address",
          "name": "newOwner",
          "type": "address"
        }
      ],
      "name": "transferOwnership",
      "outputs": [],
      "stateMutability": "nonpayable",
      "type": "function"
    },
    {
      "inputs": [
        {
          "internalType": "uint256",
          "name": "courseId",
          "type": "uint256"
        },
        {
          "internalType": "string",
          "name": "title",
          "type": "string"
        },
        {
          "internalType": "string",
          "name": "description",
          "type": "string"
        }
      ],
      "name": "updateCourse",
      "outputs": [],
      "stateMutability": "nonpayable",
      "type": "function"
    }
  ],
  "bytecode": "0x60806040526064600b553480156200001657600080fd5b506040516200406b3803806200406b833981016040819052620000399162000260565b336040518060400160405280601681526020017f45445520436f75727365204365727469666963617465000000000000000000008152506040518060400160405280600781526020016611511550d1549560ca1b8152508160009081620000a1919062000337565b506001620000b0828262000337565b5050506001600160a01b038116620000e357604051631e4fbdf760e01b8152600060048201526024015b60405180910390fd5b620000ee816200020e565b506001600160a01b038116620001475760405162461bcd60e51b815260206004820152601d60248201527f496e76616c69642066656520636f6c6c6563746f7220616464726573730000006044820152606401620000da565b600c80546001600160a01b0319166001600160a01b03929092169190911790556040805169746563686e6f6c6f677960b01b8152600d600a8201819052825191829003602a0182206078905567627573696e65737360c01b8252600882018190528251918290036028018220606e9055636172747360e01b8252600482018190528251918290036024018220605a905566736369656e636560c81b82526007820152815190819003602701902060739055336000908152600e602052206064905562000403565b600680546001600160a01b038381166001600160a01b0319831681179093556040519116919082907f8be0079c531659141344cd1fd0a4f28419497f9722a3daafe3b4186f6b6457e090600090a35050565b6000602082840312156200027357600080fd5b81516001600160a01b03811681146200028b57600080fd5b9392505050565b634e487b7160e01b600052604160045260246000fd5b600181811c90821680620002bd57607f821691505b602082108103620002de57634e487b7160e01b600052602260045260246000fd5b50919050565b601f8211156200033257600081815260208120601f850160051c810160208610156200030d5750805b601f850160051c820191505b818110156200032e5782815560010162000319565b5050505b505050565b81516001600160401b0381111562000353576200035362000292565b6200036b81620003648454620002a8565b84620002e4565b602080601f831160018114620003a357600084156200038a5750858301515b600019600386901b1c1916600185901b1785556200032e565b600085815260208120601f198616915b82811015620003d457888601518255948401946001909101908401620003b3565b5085821015620003f35787850151600019600388901b60f8161c191681555b5050505050600190811b01905550565b613c5880620004136000396000f3fe60806040523480156200001157600080fd5b50600436106200020d5760003560e01c80638da5cb5b1162000125578063c87b56dd11620000af578063e8e1136c116200007a578063e8e1136c14620004eb578063e985e9c5146200050e578063eeca08f01462000525578063f2fde38b146200052f57600080fd5b8063c87b56dd146200048f578063d51c5ec614620004a6578063e347495514620004bd578063e5ef24ea14620004d457600080fd5b806396f979d211620000f057806396f979d2146200041e578063a22cb465146200044d578063b88d4fde1462000464578063c415b95c146200047b57600080fd5b80638da5cb5b14620003d4578063927fef2e14620003e657806394f9d84c14620003fd57806395d89b41146200041457600080fd5b80631dc46c4d11620001a757806355f804b3116200017257806355f804b314620003855780636352211e146200039c57806370a0823114620003b3578063715018a614620003ca57600080fd5b80631dc46c4d146200032957806323b872dd14620003405780632450e54c146200035757806342842e0e146200036e57600080fd5b8063081812fc11620001e8578063081812fc1462000294578063095ea7b314620002c45780630b91e28d14620002dd57806312112caf146200030357600080fd5b806301ffc9a71462000212578063057f65a4146200023e57806306fdde03146200027b575b600080fd5b620002296200022336600462001c2a565b62000546565b60405190151581526020015b60405180910390f35b6200026c6200024f36600462001d00565b8051602081830181018051600d8252928201919093012091525481565b60405190815260200162000235565b620002856200059a565b60405162000235919062001d8d565b620002ab620002a536600462001da2565b62000634565b6040516001600160a01b03909116815260200162000235565b620002db620002d536600462001dd9565b62000660565b005b620002f4620002ee36600462001da2565b62000671565b60405162000235919062001e06565b6200031a6200031436600462001ec8565b620008ca565b60405162000235919062001ee6565b6200026c6200033a36600462001dd9565b62000938565b620002db6200035136600462001f2c565b6200096a565b620002db6200036836600462001dd9565b620009fb565b620002db6200037f36600462001f2c565b62000a77565b620002db6200039636600462001d00565b62000a99565b620002ab620003ad36600462001da2565b62000ab1565b6200026c620003c436600462001ec8565b62000abe565b620002db62000b08565b6006546001600160a01b0316620002ab565b620002db620003f736600462001da2565b62000b20565b620002db6200040e36600462001f6d565b62000b72565b6200028562000c61565b620004356200042f36600462001da2565b62000c72565b604051620002359a9998979695949392919062001fe1565b620002db6200045e3660046200205c565b62000df1565b620002db620004753660046200209c565b62000dfe565b600c54620002ab906001600160a01b031681565b62000285620004a036600462001da2565b62000e1a565b620002db620004b736600462001da2565b62000e8c565b620002db620004ce36600462002121565b62000f7a565b6200026c620004e53660046200216a565b62001002565b6200026c620004fc36600462001ec8565b600e6020526000908152604090205481565b620002296200051f3660046200220e565b620013d7565b6200026c600b5481565b620002db6200054036600462001ec8565b62001405565b60006001600160e01b031982166380ac58cd60e01b14806200057857506001600160e01b03198216635b5e139f60e01b145b806200059457506301ffc9a760e01b6001600160e01b03198316145b92915050565b606060008054620005ab9062002246565b80601f0160208091040260200160405190810160405280929190818152602001828054620005d99062002246565b80156200062a5780601f10620005fe576101008083540402835291602001916200062a565b820191906000526020600020905b8154815290600101906020018083116200060c57829003601f168201915b5050505050905090565b6000620006418262001449565b506000828152600460205260409020546001600160a01b031662000594565b6200066d82823362001484565b5050565b620006dc604051806101400160405280600081526020016060815260200160608152602001600081526020016000815260200160006001600160a01b0316815260200160006001600160a01b0316815260200160008152602001600081526020016000151581525090565b620006e78262001493565b6200070f5760405162461bcd60e51b8152600401620007069062002282565b60405180910390fd5b6008600083815260200190815260200160002060405180610140016040529081600082015481526020016001820180546200074a9062002246565b80601f0160208091040260200160405190810160405280929190818152602001828054620007789062002246565b8015620007c95780601f106200079d57610100808354040283529160200191620007c9565b820191906000526020600020905b815481529060010190602001808311620007ab57829003601f168201915b50505050508152602001600282018054620007e49062002246565b80601f0160208091040260200160405190810160405280929190818152602001828054620008129062002246565b8015620008635780601f10620008375761010080835404028352916020019162000863565b820191906000526020600020905b8154815290600101906020018083116200084557829003601f168201915b5050509183525050600382015460208201526004820154604082015260058201546001600160a01b0390811660608301526006830154166080820152600782015460a0820152600882015460c082015260099091015460ff16151560e09091015292915050565b6001600160a01b0381166000908152600960209081526040918290208054835181840281018401909452808452606093928301828280156200092c57602002820191906000526020600020905b81548152602001906001019080831162000917575b50505050509050919050565b600960205281600052604060002081815481106200095557600080fd5b90600052602060002001600091509150505481565b6001600160a01b0382166200099657604051633250574960e11b81526000600482015260240162000706565b6000620009a5838333620014d0565b9050836001600160a01b0316816001600160a01b031614620009f5576040516364283d7b60e01b81526001600160a01b038086166004830152602482018490528216604482015260640162000706565b50505050565b62000a05620015d0565b60008111801562000a18575061012c8111155b62000a5b5760405162461bcd60e51b815260206004820152601260248201527124b73b30b634b2103932b83aba30ba34b7b760711b604482015260640162000706565b6001600160a01b039091166000908152600e6020526040902055565b62000a948383836040518060200160405280600081525062000dfe565b505050565b62000aa3620015d0565b600a6200066d8282620022fb565b6000620005948262001449565b60006001600160a01b03821662000aec576040516322718ad960e21b81526000600482015260240162000706565b506001600160a01b031660009081526003602052604090205490565b62000b12620015d0565b62000b1e6000620015ff565b565b62000b2a620015d0565b61012c81111562000b6d5760405162461bcd60e51b815260206004820152600c60248201526b08ccaca40e8dede40d0d2ced60a31b604482015260640162000706565b600b55565b62000b7d8362001493565b62000b9c5760405162461bcd60e51b8152600401620007069062002282565b6000838152600860205260409020600501546001600160a01b0316331462000c005760405162461bcd60e51b81526020600482015260166024820152752737ba103a34329031b7bab939b29031b932b0ba37b960511b604482015260640162000706565b60008381526008602052604090206001810162000c1e8482620022fb565b506002810162000c2f8382620022fb565b5060405184907f1096076b97c67b3201b3d0093b557e24a9d8389db627dc24034f7328bd3f508090600090a250505050565b606060018054620005ab9062002246565b6008602052600090815260409020805460018201805491929162000c969062002246565b80601f016020809104026020016040519081016040528092919081815260200182805462000cc49062002246565b801562000d155780601f1062000ce95761010080835404028352916020019162000d15565b820191906000526020600020905b81548152906001019060200180831162000cf757829003601f168201915b50505050509080600201805462000d2c9062002246565b80601f016020809104026020016040519081016040528092919081815260200182805462000d5a9062002246565b801562000dab5780601f1062000d7f5761010080835404028352916020019162000dab565b820191906000526020600020905b81548152906001019060200180831162000d8d57829003601f168201915b505050600384015460048501546005860154600687015460078801546008890154600990990154979894979396506001600160a01b039283169550911692909160ff168a565b6200066d33838362001651565b62000e0b8484846200096a565b620009f53385858585620016f2565b606062000e278262001449565b50600062000e346200182a565b9050600081511162000e56576040518060200160405280600081525062000e85565b8062000e62846200183b565b60405160200162000e75929190620023c8565b6040516020818303038152906040525b9392505050565b62000e978162001493565b62000eb65760405162461bcd60e51b8152600401620007069062002282565b6000818152600860205260409020600501546001600160a01b0316331462000f1a5760405162461bcd60e51b81526020600482015260166024820152752737ba103a34329031b7bab939b29031b932b0ba37b960511b604482015260640162000706565b600081815260086020908152604091829020600901805460ff8082161560ff199092168217909255925192161515825282917f6ba49c5da39bf8cccda88a0ab633171efac7515612e35adebcb88dee06bff3a1910160405180910390a250565b62000f84620015d0565b60008111801562000f97575061012c8111155b62000fdb5760405162461bcd60e51b8152602060048201526013602482015272125b9d985b1a590818dbd959999a58da595b9d606a1b604482015260640162000706565b80600d8360405162000fee9190620023fb565b908152604051908190036020019020555050565b6000808651116200104e5760405162461bcd60e51b81526020600482015260156024820152745469746c652063616e6e6f7420626520656d70747960581b604482015260640162000706565b60008411620010a05760405162461bcd60e51b815260206004820152601f60248201527f4475726174696f6e206d7573742062652067726561746572207468616e203000604482015260640162000706565b60008211620010fc5760405162461bcd60e51b815260206004820152602160248201527f42617365207072696365206d7573742062652067726561746572207468616e206044820152600360fc1b606482015260840162000706565b6000600d84604051620011109190620023fb565b9081526020016040518091039020549050806000036200112e575060645b336000908152600e6020526040812054908190036200114b575060645b6000620f424082846200115f8a896200242f565b6200116b91906200242f565b6200117791906200242f565b62001183919062002449565b905060006200119688620f42406200242f565b905060008a604051602001620011ad91906200246c565b60408051601f19818403018152908290526007546110d560f21b60208401526022830152906042016040516020818303038152906040528333604051620011f49062001c05565b62001203949392919062002498565b604051809103906000f08015801562001220573d6000803e3d6000fd5b509050600160076000828254620012389190620024e3565b9091555050600754604080516101408101825282815260208082018f81528284018f9052606083018e9052608083018890523360a08401526001600160a01b03861660c08401524260e0840152600061010084018190526001610120850181905286825260089093529390932082518155925191929190820190620012be9082620022fb565b5060408201516002820190620012d59082620022fb565b50606082015160038201556080820151600482015560a08201516005820180546001600160a01b039283166001600160a01b03199182161790915560c084015160068401805491909316911617905560e082015160078201556101008201516008820155610120909101516009918201805491151560ff199092169190911790553360008181526020928352604081208054600181018255908252929020909101829055620013859082620018d5565b604080513381526001600160a01b038416602082015282917f751cc5a82b98828a13382a40d5226dfcc9ba4ace09c8dbf2f1efbd93b089f31a910160405180910390a29b9a5050505050505050505050565b6001600160a01b03918216600090815260056020908152604080832093909416825291909152205460ff1690565b6200140f620015d0565b6001600160a01b0381166200143b57604051631e4fbdf760e01b81526000600482015260240162000706565b6200144681620015ff565b50565b6000818152600260205260408120546001600160a01b0316806200059457604051637e27328960e01b81526004810184905260240162000706565b62000a94838383600162001940565b60008082118015620014a757506007548211155b8015620005945750506000908152600860205260409020600501546001600160a01b0316151590565b6000828152600260205260408120546001600160a01b039081169083161562001500576200150081848662001a51565b6001600160a01b0381161562001541576200152060008560008062001940565b6001600160a01b038116600090815260036020526040902080546000190190555b6001600160a01b0385161562001571576001600160a01b0385166000908152600360205260409020805460010190555b60008481526002602052604080822080546001600160a01b0319166001600160a01b0389811691821790925591518793918516917fddf252ad1be2c89b69c2b068fc378daa952ba7f163c4a11628f55a4df523b3ef91a4949350505050565b6006546001600160a01b0316331462000b1e5760405163118cdaa760e01b815233600482015260240162000706565b600680546001600160a01b038381166001600160a01b0319831681179093556040519116919082907f8be0079c531659141344cd1fd0a4f28419497f9722a3daafe3b4186f6b6457e090600090a35050565b6001600160a01b0382166200168557604051630b61174360e31b81526001600160a01b038316600482015260240162000706565b6001600160a01b03838116600081815260056020908152604080832094871680845294825291829020805460ff191686151590811790915591519182527f17307eab39ab6107e8899845ad3d59bd9653f200f220920489ca2b5937696c31910160405180910390a3505050565b6001600160a01b0383163b156200182357604051630a85bd0160e11b81526001600160a01b0384169063150b7a029062001737908890889087908790600401620024f9565b6020604051808303816000875af192505050801562001775575060408051601f3d908101601f19168201909252620017729181019062002538565b60015b620017e3573d808015620017a6576040519150601f19603f3d011682016040523d82523d6000602084013e620017ab565b606091505b508051600003620017db57604051633250574960e11b81526001600160a01b038516600482015260240162000706565b805181602001fd5b6001600160e01b03198116630a85bd0160e11b146200182157604051633250574960e11b81526001600160a01b038516600482015260240162000706565b505b5050505050565b6060600a8054620005ab9062002246565b606060006200184a8362001abb565b600101905060008167ffffffffffffffff8111156200186d576200186d62001c4a565b6040519080825280601f01601f19166020018201604052801562001898576020820181803683370190505b5090508181016020015b600019016f181899199a1a9b1b9c1cb0b131b232b360811b600a86061a8153600a8504945084620018a257509392505050565b6001600160a01b0382166200190157604051633250574960e11b81526000600482015260240162000706565b60006200191183836000620014d0565b90506001600160a01b0381161562000a94576040516339e3563760e11b81526000600482015260240162000706565b80806200195557506001600160a01b03821615155b1562001a21576000620019688462001449565b90506001600160a01b03831615801590620019955750826001600160a01b0316816001600160a01b031614155b8015620019ab5750620019a98184620013d7565b155b15620019d65760405163a9fbf51f60e01b81526001600160a01b038416600482015260240162000706565b811562001a1f5783856001600160a01b0316826001600160a01b03167f8c5be1e5ebec7d5bd14f71427d1e84f3dd0314c0f7b2291e5b200ac8c7c3b92560405160405180910390a45b505b5050600090815260046020526040902080546001600160a01b0319166001600160a01b0392909216919091179055565b62001a5e83838362001b9a565b62000a94576001600160a01b03831662001a8f57604051637e27328960e01b81526004810182905260240162000706565b60405163177e802f60e01b81526001600160a01b03831660048201526024810182905260440162000706565b60008072184f03e93ff9f4daa797ed6e38ed64bf6a1f0160401b831062001afb5772184f03e93ff9f4daa797ed6e38ed64bf6a1f0160401b830492506040015b6d04ee2d6d415b85acef8100000000831062001b28576d04ee2d6d415b85acef8100000000830492506020015b662386f26fc10000831062001b4757662386f26fc10000830492506010015b6305f5e100831062001b60576305f5e100830492506008015b612710831062001b7557612710830492506004015b6064831062001b88576064830492506002015b600a8310620005945760010192915050565b60006001600160a01b0383161580159062001bfd5750826001600160a01b0316846001600160a01b0316148062001bd8575062001bd88484620013d7565b8062001bfd57506000828152600460205260409020546001600160a01b038481169116145b949350505050565b6116ca806200255983390190565b6001600160e01b0319811681146200144657600080fd5b60006020828403121562001c3d57600080fd5b813562000e858162001c13565b634e487b7160e01b600052604160045260246000fd5b600067ffffffffffffffff8084111562001c7e5762001c7e62001c4a565b604051601f8501601f19908116603f0116810190828211818310171562001ca95762001ca962001c4a565b8160405280935085815286868601111562001cc357600080fd5b858560208301376000602087830101525050509392505050565b600082601f83011262001cef57600080fd5b62000e858383356020850162001c60565b60006020828403121562001d1357600080fd5b813567ffffffffffffffff81111562001d2b57600080fd5b62001bfd8482850162001cdd565b60005b8381101562001d5657818101518382015260200162001d3c565b50506000910152565b6000815180845262001d7981602086016020860162001d39565b601f01601f19169290920160200192915050565b60208152600062000e85602083018462001d5f565b60006020828403121562001db557600080fd5b5035919050565b80356001600160a01b038116811462001dd457600080fd5b919050565b6000806040838503121562001ded57600080fd5b62001df88362001dbc565b946020939093013593505050565b60208152815160208201526000602083015161014080604085015262001e3161016085018362001d5f565b91506040850151601f1985840301606086015262001e50838262001d5f565b92505060608501516080850152608085015160a085015260a085015162001e8260c08601826001600160a01b03169052565b5060c08501516001600160a01b03811660e08601525060e08501516101008581019190915285015161012080860191909152850151801515828601525090949350505050565b60006020828403121562001edb57600080fd5b62000e858262001dbc565b6020808252825182820181905260009190848201906040850190845b8181101562001f205783518352928401929184019160010162001f02565b50909695505050505050565b60008060006060848603121562001f4257600080fd5b62001f4d8462001dbc565b925062001f5d6020850162001dbc565b9150604084013590509250925092565b60008060006060848603121562001f8357600080fd5b83359250602084013567ffffffffffffffff8082111562001fa357600080fd5b62001fb18783880162001cdd565b9350604086013591508082111562001fc857600080fd5b5062001fd78682870162001cdd565b9150509250925092565b60006101408c835280602084015262001ffd8184018d62001d5f565b9050828103604084015262002013818c62001d5f565b606084019a909a52505060808101969096526001600160a01b0394851660a08701529290931660c085015260e08401526101008301919091521515610120909101529392505050565b600080604083850312156200207057600080fd5b6200207b8362001dbc565b9150602083013580151581146200209157600080fd5b809150509250929050565b60008060008060808587031215620020b357600080fd5b620020be8562001dbc565b9350620020ce6020860162001dbc565b925060408501359150606085013567ffffffffffffffff811115620020f257600080fd5b8501601f810187136200210457600080fd5b620021158782356020840162001c60565b91505092959194509250565b600080604083850312156200213557600080fd5b823567ffffffffffffffff8111156200214d57600080fd5b6200215b8582860162001cdd565b95602094909401359450505050565b600080600080600060a086880312156200218357600080fd5b853567ffffffffffffffff808211156200219c57600080fd5b620021aa89838a0162001cdd565b96506020880135915080821115620021c157600080fd5b620021cf89838a0162001cdd565b9550604088013594506060880135915080821115620021ed57600080fd5b50620021fc8882890162001cdd565b95989497509295608001359392505050565b600080604083850312156200222257600080fd5b6200222d8362001dbc565b91506200223d6020840162001dbc565b90509250929050565b600181811c908216806200225b57607f821691505b6020821081036200227c57634e487b7160e01b600052602260045260246000fd5b50919050565b60208082526015908201527410dbdd5c9cd948191bd95cc81b9bdd08195e1a5cdd605a1b604082015260600190565b601f82111562000a9457600081815260208120601f850160051c81016020861015620022da5750805b601f850160051c820191505b818110156200182157828155600101620022e6565b815167ffffffffffffffff81111562002318576200231862001c4a565b620023308162002329845462002246565b84620022b1565b602080601f8311600181146200236857600084156200234f5750858301515b600019600386901b1c1916600185901b17855562001821565b600085815260208120601f198616915b82811015620023995788860151825594840194600190910190840162002378565b5085821015620023b85787850151600019600388901b60f8161c191681555b5050505050600190811b01905550565b60008351620023dc81846020880162001d39565b835190830190620023f281836020880162001d39565b01949350505050565b600082516200240f81846020870162001d39565b9190910192915050565b634e487b7160e01b600052601160045260246000fd5b808202811582820484141762000594576200059462002419565b6000826200246757634e487b7160e01b600052601260045260246000fd5b500490565b600082516200248081846020870162001d39565b65102a37b5b2b760d11b920191825250600601919050565b608081526000620024ad608083018762001d5f565b8281036020840152620024c1818762001d5f565b604084019590955250506001600160a01b039190911660609091015292915050565b8082018082111562000594576200059462002419565b6001600160a01b03858116825284166020820152604081018390526080606082018190526000906200252e9083018462001d5f565b9695505050505050565b6000602082840312156200254b57600080fd5b815162000e858162001c1356fe6080604052601460085560326009556032600a553480156200002057600080fd5b50604051620016ca380380620016ca8339810160408190526200004391620003dc565b808484600362000054838262000500565b50600462000063828262000500565b5050506001600160a01b0381166200009657604051631e4fbdf760e01b8152600060048201526024015b60405180910390fd5b620000a18162000154565b50600680546001600160a01b0383166001600160a01b0319918216811790925560078054821683179055600b805490911682179055620000fc906064620000ea603c86620005e2565b620000f6919062000602565b620001a6565b62000110816064620000ea601486620005e2565b60075462000130906001600160a01b03166064620000ea601486620005e2565b6001600160a01b03166000908152600c60205260409020429055506200063b915050565b600580546001600160a01b038381166001600160a01b0319831681179093556040519116919082907f8be0079c531659141344cd1fd0a4f28419497f9722a3daafe3b4186f6b6457e090600090a35050565b6001600160a01b038216620001d25760405163ec442f0560e01b8152600060048201526024016200008d565b620001e060008383620001e4565b5050565b6001600160a01b0383166200021357806002600082825462000207919062000625565b90915550620002879050565b6001600160a01b03831660009081526020819052604090205481811015620002685760405163391434e360e21b81526001600160a01b038516600482015260248101829052604481018390526064016200008d565b6001600160a01b03841660009081526020819052604090209082900390555b6001600160a01b038216620002a557600280548290039055620002c4565b6001600160a01b03821660009081526020819052604090208054820190555b816001600160a01b0316836001600160a01b03167fddf252ad1be2c89b69c2b068fc378daa952ba7f163c4a11628f55a4df523b3ef836040516200030a91815260200190565b60405180910390a3505050565b634e487b7160e01b600052604160045260246000fd5b600082601f8301126200033f57600080fd5b81516001600160401b03808211156200035c576200035c62000317565b604051601f8301601f19908116603f0116810190828211818310171562000387576200038762000317565b81604052838152602092508683858801011115620003a457600080fd5b600091505b83821015620003c85785820183015181830184015290820190620003a9565b600093810190920192909252949350505050565b60008060008060808587031215620003f357600080fd5b84516001600160401b03808211156200040b57600080fd5b62000419888389016200032d565b955060208701519150808211156200043057600080fd5b506200043f878288016200032d565b60408701516060880151919550935090506001600160a01b03811681146200046657600080fd5b939692955090935050565b600181811c908216806200048657607f821691505b602082108103620004a757634e487b7160e01b600052602260045260246000fd5b50919050565b601f821115620004fb57600081815260208120601f850160051c81016020861015620004d65750805b601f850160051c820191505b81811015620004f757828155600101620004e2565b5050505b505050565b81516001600160401b038111156200051c576200051c62000317565b62000534816200052d845462000471565b84620004ad565b602080601f8311600181146200056c5760008415620005535750858301515b600019600386901b1c1916600185901b178555620004f7565b600085815260208120601f198616915b828110156200059d578886015182559484019460019091019084016200057c565b5085821015620005bc5787850151600019600388901b60f8161c191681555b5050505050600190811b01905550565b634e487b7160e01b600052601160045260246000fd5b8082028115828204841417620005fc57620005fc620005cc565b92915050565b6000826200062057634e487b7160e01b600052601260045260246000fd5b500490565b80820180821115620005fc57620005fc620005cc565b61107f806200064b6000396000f3fe608060405234801561001057600080fd5b506004361061014d5760003560e01c806395d89b41116100c3578063bbb2dfa51161007c578063bbb2dfa5146102a5578063c3fdfbb4146102b8578063cbcf8cae146102d8578063d25b17b6146102eb578063dd62ed3e146102fe578063f2fde38b1461033757600080fd5b806395d89b41146102525780639f15e6781461025a578063a031cf2e14610263578063a1d609001461026c578063a9059cbb1461027f578063aa95e3591461029257600080fd5b8063363bf96411610115578063363bf964146101c757806340e468c9146101dc57806370a0823114610207578063715018a6146102305780638da5cb5b146102385780638ed0524b1461024957600080fd5b806306fdde0314610152578063095ea7b31461017057806318160ddd1461019357806323b872dd146101a5578063313ce567146101b8575b600080fd5b61015a61034a565b6040516101679190610dfe565b60405180910390f35b61018361017e366004610e68565b6103dc565b6040519015158152602001610167565b6002545b604051908152602001610167565b6101836101b3366004610e92565b6103f6565b60405160128152602001610167565b6101da6101d5366004610ece565b610418565b005b600b546101ef906001600160a01b031681565b6040516001600160a01b039091168152602001610167565b610197610215366004610f11565b6001600160a01b031660009081526020819052604090205490565b6101da610572565b6005546001600160a01b03166101ef565b61019760085481565b61015a610586565b610197600a5481565b61019760095481565b61019761027a366004610f11565b610595565b61018361028d366004610e68565b6105df565b6007546101ef906001600160a01b031681565b6101da6102b3366004610f2c565b6105f3565b6101976102c6366004610f11565b600c6020526000908152604090205481565b6101da6102e6366004610f45565b610645565b6006546101ef906001600160a01b031681565b61019761030c366004610f67565b6001600160a01b03918216600090815260016020908152604080832093909416825291909152205490565b6101da610345366004610f11565b6106b1565b60606003805461035990610f9a565b80601f016020809104026020016040519081016040528092919081815260200182805461038590610f9a565b80156103d25780601f106103a7576101008083540402835291602001916103d2565b820191906000526020600020905b8154815290600101906020018083116103b557829003601f168201915b5050505050905090565b6000336103ea8185856106ef565b60019150505b92915050565b600033610404858285610701565b61040f858585610780565b95945050505050565b610420610ae7565b6001600160a01b03831661047b5760405162461bcd60e51b815260206004820152601e60248201527f496e76616c6964206c697175696469747920706f6f6c2061646472657373000060448201526064015b60405180910390fd5b6001600160a01b0382166104dd5760405162461bcd60e51b8152602060048201526024808201527f496e76616c696420636f6d6d756e69747920696e63656e7469766573206164646044820152637265737360e01b6064820152608401610472565b6001600160a01b0381166105335760405162461bcd60e51b815260206004820181905260248201527f496e76616c6964207363686f6c61727368697020706f6f6c20616464726573736044820152606401610472565b600680546001600160a01b039485166001600160a01b0319918216179091556007805493851693821693909317909255600b8054919093169116179055565b61057a610ae7565b6105846000610b14565b565b60606004805461035990610f9a565b6001600160a01b0381166000908152600c602052604081205481036105bc57506000919050565b6001600160a01b0382166000908152600c60205260409020546103f09042610fea565b60006105ec338484610780565b9392505050565b6105fb610ae7565b60328111156106405760405162461bcd60e51b81526020600482015260116024820152700a8c2f040e4c2e8ca40e8dede40d0d2ced607b1b6044820152606401610472565b600855565b61064d610ae7565b6106578183610ffd565b6064146106a65760405162461bcd60e51b815260206004820152601b60248201527f50657263656e7461676573206d7573742073756d20746f2031303000000000006044820152606401610472565b600991909155600a55565b6106b9610ae7565b6001600160a01b0381166106e357604051631e4fbdf760e01b815260006004820152602401610472565b6106ec81610b14565b50565b6106fc8383836001610b66565b505050565b6001600160a01b0383811660009081526001602090815260408083209386168352929052205460001981101561077a578181101561076b57604051637dc7a0d960e11b81526001600160a01b03841660048201526024810182905260448101839052606401610472565b61077a84848484036000610b66565b50505050565b60006001600160a01b0384166107d85760405162461bcd60e51b815260206004820152601a60248201527f5472616e736665722066726f6d207a65726f20616464726573730000000000006044820152606401610472565b6001600160a01b03831661082e5760405162461bcd60e51b815260206004820152601860248201527f5472616e7366657220746f207a65726f206164647265737300000000000000006044820152606401610472565b60006108426005546001600160a01b031690565b6001600160a01b0316856001600160a01b0316148061086e57506005546001600160a01b038581169116145b8061088657506006546001600160a01b038681169116145b8061089e57506006546001600160a01b038581169116145b806108b657506007546001600160a01b038681169116145b806108ce57506007546001600160a01b038581169116145b806108e65750600b546001600160a01b038681169116145b6008549091508115801561091157506001600160a01b0386166000908152600c602052604090205415155b15610987576001600160a01b0386166000908152600c60205260408120546109399042610fea565b905062093a80811115610960576064610953836050611010565b61095d9190611027565b91505b62278d0081111561098557606461097883603c611010565b6109829190611027565b91505b505b6000826109a8576103e861099b8387611010565b6109a59190611027565b90505b8015610ab45760006064600954836109c09190611010565b6109ca9190611027565b905060006109d88284610fea565b90506109e5893085610c3b565b6109f989896109f4868b610fea565b610c3b565b8115610a0957610a093083610c9a565b8015610a2757600b54610a279030906001600160a01b031683610c3b565b876001600160a01b0316896001600160a01b03167f5d37fd68fe66745a199f8c603e00ae02183f4aabb8ec0089589b0b40c4ead5e185604051610a6c91815260200190565b60405180910390a360408051838152602081018390527ff13a097c86c35dc1a2adcff5f61fd6fcff9e7f01c572f413c7b48e48cf390cd4910160405180910390a15050610abf565b610abf878787610c3b565b5050506001600160a01b0383166000908152600c602052604090204290555060019392505050565b6005546001600160a01b031633146105845760405163118cdaa760e01b8152336004820152602401610472565b600580546001600160a01b038381166001600160a01b0319831681179093556040519116919082907f8be0079c531659141344cd1fd0a4f28419497f9722a3daafe3b4186f6b6457e090600090a35050565b6001600160a01b038416610b905760405163e602df0560e01b815260006004820152602401610472565b6001600160a01b038316610bba57604051634a1406b160e11b815260006004820152602401610472565b6001600160a01b038085166000908152600160209081526040808320938716835292905220829055801561077a57826001600160a01b0316846001600160a01b03167f8c5be1e5ebec7d5bd14f71427d1e84f3dd0314c0f7b2291e5b200ac8c7c3b92584604051610c2d91815260200190565b60405180910390a350505050565b6001600160a01b038316610c6557604051634b637e8f60e11b815260006004820152602401610472565b6001600160a01b038216610c8f5760405163ec442f0560e01b815260006004820152602401610472565b6106fc838383610cd4565b6001600160a01b038216610cc457604051634b637e8f60e11b815260006004820152602401610472565b610cd082600083610cd4565b5050565b6001600160a01b038316610cff578060026000828254610cf49190610ffd565b90915550610d719050565b6001600160a01b03831660009081526020819052604090205481811015610d525760405163391434e360e21b81526001600160a01b03851660048201526024810182905260448101839052606401610472565b6001600160a01b03841660009081526020819052604090209082900390555b6001600160a01b038216610d8d57600280548290039055610dac565b6001600160a01b03821660009081526020819052604090208054820190555b816001600160a01b0316836001600160a01b03167fddf252ad1be2c89b69c2b068fc378daa952ba7f163c4a11628f55a4df523b3ef83604051610df191815260200190565b60405180910390a3505050565b600060208083528351808285015260005b81811015610e2b57858101830151858201604001528201610e0f565b506000604082860101526040601f19601f8301168501019250505092915050565b80356001600160a01b0381168114610e6357600080fd5b919050565b60008060408385031215610e7b57600080fd5b610e8483610e4c565b946020939093013593505050565b600080600060608486031215610ea757600080fd5b610eb084610e4c565b9250610ebe60208501610e4c565b9150604084013590509250925092565b600080600060608486031215610ee357600080fd5b610eec84610e4c565b9250610efa60208501610e4c565b9150610f0860408501610e4c565b90509250925092565b600060208284031215610f2357600080fd5b6105ec82610e4c565b600060208284031215610f3e57600080fd5b5035919050565b60008060408385031215610f5857600080fd5b50508035926020909101359150565b60008060408385031215610f7a57600080fd5b610f8383610e4c565b9150610f9160208401610e4c565b90509250929050565b600181811c90821680610fae57607f821691505b602082108103610fce57634e487b7160e01b600052602260045260246000fd5b50919050565b634e487b7160e01b600052601160045260246000fd5b818103818111156103f0576103f0610fd4565b808201808211156103f0576103f0610fd4565b80820281158282048414176103f0576103f0610fd4565b60008261104457634e487b7160e01b600052601260045260246000fd5b50049056fea2646970667358221220f9457a4cce2c32dabd763ab198f930a5a750b84c4dd50e3f24e189bcde3f23f964736f6c63430008140033a264697066735822122035d05ed43eb9a460be7db968ccb675df3e7da56e250ddfb1b61d4fa5e74a793164736f6c63430008140033",
  "linkReferences": {},
  "deployedLinkReferences": {}
}