{
  "_format": "hh-sol-artifact-1",
  "contractName": "LearningManager",
  "sourceName": "contracts/LearningManager.sol",
  "abi": [
    {
      "inputs": [
        {
          "internalType": "address",
          "name": "_courseFactoryAddress",
          "type": "address"
        },
        {
          "internalType": "address",
          "name": "_platformTokenAddress",
          "type": "address"
        }
      ],
      "stateMutability": "nonpayable",
      "type": "constructor"
    },
    {
      "inputs": [
        {
          "internalType": "address",
          "name": "owner",
          "type": "address"
        }
      ],
      "name": "OwnableInvalidOwner",
      "type": "error"
    },
    {
      "inputs": [
        {
          "internalType": "address",
          "name": "account",
          "type": "address"
        }
      ],
      "name": "OwnableUnauthorizedAccount",
      "type": "error"
    },
    {
      "inputs": [],
      "name": "ReentrancyGuardReentrantCall",
      "type": "error"
    },
    {
      "anonymous": false,
      "inputs": [
        {
          "indexed": true,
          "internalType": "uint256",
          "name": "courseId",
          "type": "uint256"
        },
        {
          "indexed": true,
          "internalType": "address",
          "name": "learner",
          "type": "address"
        }
      ],
      "name": "CertificateIssued",
      "type": "event"
    },
    {
      "anonymous": false,
      "inputs": [
        {
          "indexed": true,
          "internalType": "uint256",
          "name": "recordId",
          "type": "uint256"
        },
        {
          "indexed": true,
          "internalType": "uint256",
          "name": "courseId",
          "type": "uint256"
        },
        {
          "indexed": true,
          "internalType": "address",
          "name": "learner",
          "type": "address"
        },
        {
          "indexed": false,
          "internalType": "uint256",
          "name": "rewardAmount",
          "type": "uint256"
        }
      ],
      "name": "CourseCompleted",
      "type": "event"
    },
    {
      "anonymous": false,
      "inputs": [
        {
          "indexed": true,
          "internalType": "uint256",
          "name": "recordId",
          "type": "uint256"
        },
        {
          "indexed": true,
          "internalType": "uint256",
          "name": "courseId",
          "type": "uint256"
        },
        {
          "indexed": true,
          "internalType": "address",
          "name": "learner",
          "type": "address"
        },
        {
          "indexed": false,
          "internalType": "uint256",
          "name": "stakedAmount",
          "type": "uint256"
        }
      ],
      "name": "CourseEnrolled",
      "type": "event"
    },
    {
      "anonymous": false,
      "inputs": [
        {
          "indexed": true,
          "internalType": "address",
          "name": "previousOwner",
          "type": "address"
        },
        {
          "indexed": true,
          "internalType": "address",
          "name": "newOwner",
          "type": "address"
        }
      ],
      "name": "OwnershipTransferred",
      "type": "event"
    },
    {
      "anonymous": false,
      "inputs": [
        {
          "indexed": true,
          "internalType": "uint256",
          "name": "recordId",
          "type": "uint256"
        },
        {
          "indexed": false,
          "internalType": "uint256",
          "name": "newProgress",
          "type": "uint256"
        }
      ],
      "name": "ProgressUpdated",
      "type": "event"
    },
    {
      "anonymous": false,
      "inputs": [
        {
          "indexed": true,
          "internalType": "uint256",
          "name": "recordId",
          "type": "uint256"
        },
        {
          "indexed": false,
          "internalType": "uint256",
          "name": "score",
          "type": "uint256"
        }
      ],
      "name": "QuizSubmitted",
      "type": "event"
    },
    {
      "inputs": [],
      "name": "MAX_REWARD_PERCENTAGE",
      "outputs": [
        {
          "internalType": "uint256",
          "name": "",
          "type": "uint256"
        }
      ],
      "stateMutability": "view",
      "type": "function"
    },
    {
      "inputs": [
        {
          "internalType": "uint256",
          "name": "recordId",
          "type": "uint256"
        }
      ],
      "name": "calculateLTE",
      "outputs": [
        {
          "internalType": "uint256",
          "name": "",
          "type": "uint256"
        }
      ],
      "stateMutability": "view",
      "type": "function"
    },
    {
      "inputs": [
        {
          "internalType": "uint256",
          "name": "recordId",
          "type": "uint256"
        }
      ],
      "name": "calculateReward",
      "outputs": [
        {
          "internalType": "uint256",
          "name": "",
          "type": "uint256"
        }
      ],
      "stateMutability": "view",
      "type": "function"
    },
    {
      "inputs": [],
      "name": "certificateNFTAddress",
      "outputs": [
        {
          "internalType": "address",
          "name": "",
          "type": "address"
        }
      ],
      "stateMutability": "view",
      "type": "function"
    },
    {
      "inputs": [
        {
          "internalType": "uint256",
          "name": "",
          "type": "uint256"
        },
        {
          "internalType": "address",
          "name": "",
          "type": "address"
        }
      ],
      "name": "certificatesIssued",
      "outputs": [
        {
          "internalType": "bool",
          "name": "",
          "type": "bool"
        }
      ],
      "stateMutability": "view",
      "type": "function"
    },
    {
      "inputs": [],
      "name": "courseFactory",
      "outputs": [
        {
          "internalType": "contract CourseFactory",
          "name": "",
          "type": "address"
        }
      ],
      "stateMutability": "view",
      "type": "function"
    },
    {
      "inputs": [
        {
          "internalType": "uint256",
          "name": "",
          "type": "uint256"
        },
        {
          "internalType": "uint256",
          "name": "",
          "type": "uint256"
        }
      ],
      "name": "courseLearners",
      "outputs": [
        {
          "internalType": "address",
          "name": "",
          "type": "address"
        }
      ],
      "stateMutability": "view",
      "type": "function"
    },
    {
      "inputs": [
        {
          "internalType": "uint256",
          "name": "courseId",
          "type": "uint256"
        }
      ],
      "name": "enrollCourse",
      "outputs": [
        {
          "internalType": "uint256",
          "name": "",
          "type": "uint256"
        }
      ],
      "stateMutability": "payable",
      "type": "function"
    },
    {
      "inputs": [
        {
          "internalType": "uint256",
          "name": "courseId",
          "type": "uint256"
        }
      ],
      "name": "getCourseLearners",
      "outputs": [
        {
          "internalType": "address[]",
          "name": "",
          "type": "address[]"
        }
      ],
      "stateMutability": "view",
      "type": "function"
    },
    {
      "inputs": [
        {
          "internalType": "address",
          "name": "learner",
          "type": "address"
        },
        {
          "internalType": "uint256",
          "name": "courseId",
          "type": "uint256"
        }
      ],
      "name": "getLearnerCourseRecord",
      "outputs": [
        {
          "internalType": "uint256",
          "name": "",
          "type": "uint256"
        }
      ],
      "stateMutability": "view",
      "type": "function"
    },
    {
      "inputs": [
        {
          "internalType": "uint256",
          "name": "recordId",
          "type": "uint256"
        }
      ],
      "name": "getLearningRecord",
      "outputs": [
        {
          "components": [
            {
              "internalType": "uint256",
              "name": "courseId",
              "type": "uint256"
            },
            {
              "internalType": "address",
              "name": "learner",
              "type": "address"
            },
            {
              "internalType": "uint256",
              "name": "stakedAmount",
              "type": "uint256"
            },
            {
              "internalType": "uint256",
              "name": "startTime",
              "type": "uint256"
            },
            {
              "internalType": "uint256",
              "name": "lastCheckpointTime",
              "type": "uint256"
            },
            {
              "internalType": "uint256",
              "name": "progressPercent",
              "type": "uint256"
            },
            {
              "internalType": "bool",
              "name": "completed",
              "type": "bool"
            },
            {
              "internalType": "bool",
              "name": "isActive",
              "type": "bool"
            }
          ],
          "internalType": "struct LearningManager.LearningRecord",
          "name": "",
          "type": "tuple"
        }
      ],
      "stateMutability": "view",
      "type": "function"
    },
    {
      "inputs": [
        {
          "internalType": "uint256",
          "name": "courseId",
          "type": "uint256"
        },
        {
          "internalType": "address",
          "name": "learner",
          "type": "address"
        }
      ],
      "name": "hasCertificate",
      "outputs": [
        {
          "internalType": "bool",
          "name": "",
          "type": "bool"
        }
      ],
      "stateMutability": "view",
      "type": "function"
    },
    {
      "inputs": [
        {
          "internalType": "address",
          "name": "",
          "type": "address"
        },
        {
          "internalType": "uint256",
          "name": "",
          "type": "uint256"
        }
      ],
      "name": "learnerCourseRecords",
      "outputs": [
        {
          "internalType": "uint256",
          "name": "",
          "type": "uint256"
        }
      ],
      "stateMutability": "view",
      "type": "function"
    },
    {
      "inputs": [
        {
          "internalType": "uint256",
          "name": "",
          "type": "uint256"
        }
      ],
      "name": "learningRecords",
      "outputs": [
        {
          "internalType": "uint256",
          "name": "courseId",
          "type": "uint256"
        },
        {
          "internalType": "address",
          "name": "learner",
          "type": "address"
        },
        {
          "internalType": "uint256",
          "name": "stakedAmount",
          "type": "uint256"
        },
        {
          "internalType": "uint256",
          "name": "startTime",
          "type": "uint256"
        },
        {
          "internalType": "uint256",
          "name": "lastCheckpointTime",
          "type": "uint256"
        },
        {
          "internalType": "uint256",
          "name": "progressPercent",
          "type": "uint256"
        },
        {
          "internalType": "bool",
          "name": "completed",
          "type": "bool"
        },
        {
          "internalType": "bool",
          "name": "isActive",
          "type": "bool"
        }
      ],
      "stateMutability": "view",
      "type": "function"
    },
    {
      "inputs": [],
      "name": "owner",
      "outputs": [
        {
          "internalType": "address",
          "name": "",
          "type": "address"
        }
      ],
      "stateMutability": "view",
      "type": "function"
    },
    {
      "inputs": [],
      "name": "platformTokenAddress",
      "outputs": [
        {
          "internalType": "address",
          "name": "",
          "type": "address"
        }
      ],
      "stateMutability": "view",
      "type": "function"
    },
    {
      "inputs": [
        {
          "internalType": "uint256",
          "name": "",
          "type": "uint256"
        }
      ],
      "name": "quizScores",
      "outputs": [
        {
          "internalType": "uint256",
          "name": "",
          "type": "uint256"
        }
      ],
      "stateMutability": "view",
      "type": "function"
    },
    {
      "inputs": [],
      "name": "renounceOwnership",
      "outputs": [],
      "stateMutability": "nonpayable",
      "type": "function"
    },
    {
      "inputs": [
        {
          "internalType": "address",
          "name": "_certificateNFTAddress",
          "type": "address"
        }
      ],
      "name": "setCertificateNFTAddress",
      "outputs": [],
      "stateMutability": "nonpayable",
      "type": "function"
    },
    {
      "inputs": [
        {
          "internalType": "uint256",
          "name": "recordId",
          "type": "uint256"
        },
        {
          "internalType": "uint256",
          "name": "score",
          "type": "uint256"
        }
      ],
      "name": "submitQuizScore",
      "outputs": [],
      "stateMutability": "nonpayable",
      "type": "function"
    },
    {
      "inputs": [
        {
          "internalType": "address",
          "name": "newOwner",
          "type": "address"
        }
      ],
      "name": "transferOwnership",
      "outputs": [],
      "stateMutability": "nonpayable",
      "type": "function"
    },
    {
      "inputs": [
        {
          "internalType": "uint256",
          "name": "recordId",
          "type": "uint256"
        },
        {
          "internalType": "uint256",
          "name": "newProgress",
          "type": "uint256"
        }
      ],
      "name": "updateProgress",
      "outputs": [],
      "stateMutability": "nonpayable",
      "type": "function"
    },
    {
      "stateMutability": "payable",
      "type": "receive"
    }
  ],
  "bytecode": "0x60806040523480156200001157600080fd5b5060405162001a3d38038062001a3d8339810160408190526200003491620001bb565b33806200005c57604051631e4fbdf760e01b8152600060048201526024015b60405180910390fd5b62000067816200014e565b50600180556001600160a01b038216620000c45760405162461bcd60e51b815260206004820152601e60248201527f496e76616c696420636f7572736520666163746f727920616464726573730000604482015260640162000053565b6001600160a01b0381166200011c5760405162461bcd60e51b815260206004820152601e60248201527f496e76616c696420706c6174666f726d20746f6b656e20616464726573730000604482015260640162000053565b600280546001600160a01b039384166001600160a01b03199182161790915560098054929093169116179055620001f3565b600080546001600160a01b038381166001600160a01b0319831681178455604051919092169283917f8be0079c531659141344cd1fd0a4f28419497f9722a3daafe3b4186f6b6457e09190a35050565b80516001600160a01b0381168114620001b657600080fd5b919050565b60008060408385031215620001cf57600080fd5b620001da836200019e565b9150620001ea602084016200019e565b90509250929050565b61183a80620002036000396000f3fe6080604052600436106101395760003560e01c8063954fe2ce116100ab578063d2d7231f1161006f578063d2d7231f14610458578063db147b1814610478578063dbaf557f14610498578063e3a62c3214610521578063f2fde38b1461054e578063f9d88e8d1461056e57600080fd5b8063954fe2ce14610385578063969c4272146103cb578063af8255ab146103eb578063c2d12cef1461040b578063c6810d1e1461043857600080fd5b80634747b0be116100fd5780634747b0be146102a55780634a388d87146102c75780634efbda18146102e7578063715018a614610307578063885623d21461031c5780638da5cb5b1461036757600080fd5b80631e9ffe3a146101455780632a669809146101825780632de1edd5146101c857806335545a20146101dd5780633dbd0e0c1461029257600080fd5b3661014057005b600080fd5b34801561015157600080fd5b5061016561016036600461141c565b61058e565b6040516001600160a01b0390911681526020015b60405180910390f35b34801561018e57600080fd5b506101ba61019d366004611453565b600560209081526000928352604080842090915290825290205481565b604051908152602001610179565b3480156101d457600080fd5b506101ba604681565b3480156101e957600080fd5b5061024b6101f836600461147f565b6004602081905260009182526040909120805460018201546002830154600384015494840154600585015460069095015493956001600160a01b0390931694919390919060ff8082169161010090041688565b604080519889526001600160a01b039097166020890152958701949094526060860192909252608085015260a0840152151560c0830152151560e082015261010001610179565b6101ba6102a036600461147f565b6105c6565b3480156102b157600080fd5b506102c56102c0366004611498565b610a22565b005b3480156102d357600080fd5b506101ba6102e2366004611453565b610aa2565b3480156102f357600080fd5b50600a54610165906001600160a01b031681565b34801561031357600080fd5b506102c5610acd565b34801561032857600080fd5b506103576103373660046114bc565b600760209081526000928352604080842090915290825290205460ff1681565b6040519015158152602001610179565b34801561037357600080fd5b506000546001600160a01b0316610165565b34801561039157600080fd5b506103576103a03660046114bc565b60009182526007602090815260408084206001600160a01b0393909316845291905290205460ff1690565b3480156103d757600080fd5b50600954610165906001600160a01b031681565b3480156103f757600080fd5b506102c561040636600461141c565b610ae1565b34801561041757600080fd5b506101ba61042636600461147f565b60086020526000908152604090205481565b34801561044457600080fd5b50600254610165906001600160a01b031681565b34801561046457600080fd5b506101ba61047336600461147f565b610cba565b34801561048457600080fd5b506102c561049336600461141c565b610dc9565b3480156104a457600080fd5b506104b86104b336600461147f565b610ef4565b6040516101799190815181526020808301516001600160a01b03169082015260408083015190820152606080830151908201526080808301519082015260a0808301519082015260c08083015115159082015260e0918201511515918101919091526101000190565b34801561052d57600080fd5b5061054161053c36600461147f565b610fea565b60405161017991906114ec565b34801561055a57600080fd5b506102c5610569366004611498565b611056565b34801561057a57600080fd5b506101ba61058936600461147f565b611094565b600660205281600052604060002081815481106105aa57600080fd5b6000918252602090912001546001600160a01b03169150829050565b60006105d06111f9565b600254604051630b91e28d60e01b8152600481018490526000916001600160a01b031690630b91e28d90602401600060405180830381865afa15801561061a573d6000803e3d6000fd5b505050506040513d6000823e601f3d908101601f19168201604052610642919081019061164a565b90508061012001516106925760405162461bcd60e51b8152602060048201526014602482015273436f75727365206973206e6f742061637469766560601b60448201526064015b60405180910390fd5b336000908152600560209081526040808320868452909152902054156106ed5760405162461bcd60e51b815260206004820152601060248201526f105b1c9958591e48195b9c9bdb1b195960821b6044820152606401610689565b80608001513410156107385760405162461bcd60e51b8152602060048201526014602482015273125b9cdd59999a58da595b9d081c185e5b595b9d60621b6044820152606401610689565b60016003600082825461074b919061175d565b9250508190555060006003549050604051806101000160405280858152602001336001600160a01b031681526020013481526020014281526020014281526020016000815260200160001515815260200160011515815250600460008381526020019081526020016000206000820151816000015560208201518160010160006101000a8154816001600160a01b0302191690836001600160a01b0316021790555060408201518160020155606082015181600301556080820151816004015560a0820151816005015560c08201518160060160006101000a81548160ff02191690831515021790555060e08201518160060160016101000a81548160ff0219169083151502179055509050508060056000336001600160a01b03166001600160a01b0316815260200190815260200160002060008681526020019081526020016000208190555060066000858152602001908152602001600020339080600181540180825580915050600190039060005260206000200160009091909190916101000a8154816001600160a01b0302191690836001600160a01b0316021790555060006103e8600260009054906101000a90046001600160a01b03166001600160a01b031663eeca08f06040518163ffffffff1660e01b8152600401602060405180830381865afa158015610945573d6000803e3d6000fd5b505050506040513d601f19601f820116820180604052508101906109699190611770565b6109739034611789565b61097d91906117a0565b9050600061098b82346117c2565b60a08501516040519192506001600160a01b03169082156108fc029083906000818181858888f193505050501580156109c8573d6000803e3d6000fd5b50336001600160a01b031686847fdc048189d529b0669a27d20ef1ff01c2285b4d75a54e468a95c18b7bf56c503934604051610a0691815260200190565b60405180910390a4509092505050610a1d60018055565b919050565b610a2a611223565b6001600160a01b038116610a805760405162461bcd60e51b815260206004820152601f60248201527f496e76616c6964206365727469666963617465204e46542061646472657373006044820152606401610689565b600a80546001600160a01b0319166001600160a01b0392909216919091179055565b6001600160a01b03821660009081526005602090815260408083208484529091529020545b92915050565b610ad5611223565b610adf6000611250565b565b610ae9611223565b600354821115610b0b5760405162461bcd60e51b8152600401610689906117d5565b6064811115610b5c5760405162461bcd60e51b815260206004820152601b60248201527f50726f67726573732063616e6e6f7420657863656564203130302500000000006044820152606401610689565b60008281526004602052604090206006810154610100900460ff16610bba5760405162461bcd60e51b81526020600482015260146024820152735265636f7264206973206e6f742061637469766560601b6044820152606401610689565b600681015460ff1615610c0f5760405162461bcd60e51b815260206004820152601860248201527f436f7572736520616c726561647920636f6d706c6574656400000000000000006044820152606401610689565b80600501548211610c625760405162461bcd60e51b815260206004820152601860248201527f43616e6e6f742064656372656173652070726f677265737300000000000000006044820152606401610689565b6005810182905542600482015560405182815283907f5872cdf71af29d433728d329d247d308a6b6c7c2b51cca3f43624e687a812d359060200160405180910390a281606403610cb557610cb5836112a0565b505050565b6000818152600460208181526040808420815161010080820184528254825260018301546001600160a01b03169482019490945260028201549281019290925260038101546060830152928301546080820152600583015460a0820181905260069093015460ff808216151560c0840152929004909116151560e0820152908290606490610d4a90604690611789565b610d5491906117a0565b600085815260086020526040812054919250908015610d87576064610d7a82600a611789565b610d8491906117a0565b91505b6000610d93838561175d565b90506046811115610da2575060465b6064818660400151610db49190611789565b610dbe91906117a0565b979650505050505050565b610dd1611223565b600354821115610df35760405162461bcd60e51b8152600401610689906117d5565b6064811115610e445760405162461bcd60e51b815260206004820152601760248201527f53636f72652063616e6e6f7420657863656564203130300000000000000000006044820152606401610689565b60008281526004602052604090206006810154610100900460ff16610ea25760405162461bcd60e51b81526020600482015260146024820152735265636f7264206973206e6f742061637469766560601b6044820152606401610689565b600083815260086020526040908190208390555183907f7833460e98e223f0033582d46b8b55f9ccbe34f8aac2d6c964b9e50d88254d3f90610ee79085815260200190565b60405180910390a2505050565b610f496040518061010001604052806000815260200160006001600160a01b03168152602001600081526020016000815260200160008152602001600081526020016000151581526020016000151581525090565b600354821115610f6b5760405162461bcd60e51b8152600401610689906117d5565b50600090815260046020818152604092839020835161010080820186528254825260018301546001600160a01b03169382019390935260028201549481019490945260038101546060850152918201546080840152600582015460a084015260069091015460ff808216151560c085015291900416151560e082015290565b60008181526006602090815260409182902080548351818402810184019094528084526060939283018282801561104a57602002820191906000526020600020905b81546001600160a01b0316815260019091019060200180831161102c575b50505050509050919050565b61105e611223565b6001600160a01b03811661108857604051631e4fbdf760e01b815260006004820152602401610689565b61109181611250565b50565b600081815260046020818152604080842081516101008082018452825480835260018401546001600160a01b03908116968401969096526002808501548487015260038501546060850152848801546080850152600585015460a085015260069094015460ff808216151560c0860152929004909116151560e083015291549251630b91e28d60e01b8152948501919091529284929190911690630b91e28d90602401600060405180830381865afa158015611154573d6000803e3d6000fd5b505050506040513d6000823e601f3d908101601f1916820160405261117c919081019061164a565b90506000610e1083606001514261119391906117c2565b61119d91906117a0565b6000868152600860205260409020546060840151919250908115806111c0575080155b156111d2575060009695505050505050565b6111dd816064611789565b6111e78385611789565b610db490670de0b6b3a7640000611789565b60026001540361121c57604051633ee5aeb560e01b815260040160405180910390fd5b6002600155565b6000546001600160a01b03163314610adf5760405163118cdaa760e01b8152336004820152602401610689565b600080546001600160a01b038381166001600160a01b0319831681178455604051919092169283917f8be0079c531659141344cd1fd0a4f28419497f9722a3daafe3b4186f6b6457e09190a35050565b600081815260046020526040812060068101805460ff1916600117905560646005820155906112ce83610cba565b905080156113145760018201546040516001600160a01b039091169082156108fc029083906000818181858888f19350505050158015611312573d6000803e3d6000fd5b505b8154600183015461132e91906001600160a01b031661137b565b600182015482546040518381526001600160a01b039092169185907f891afdbbb3eb5a5061417ce31783707bee32fd3fa226ac89f905299165dc12129060200160405180910390a4505050565b60008281526007602090815260408083206001600160a01b038516845290915290205460ff16156113aa575050565b60008281526007602090815260408083206001600160a01b0380861685529252909120805460ff19166001179055600a541615611418576040516001600160a01b0382169083907fe49b307e598015623a2892255804cc484dc5e94047758669301ad2f11a739ffb90600090a35b5050565b6000806040838503121561142f57600080fd5b50508035926020909101359150565b6001600160a01b038116811461109157600080fd5b6000806040838503121561146657600080fd5b82356114718161143e565b946020939093013593505050565b60006020828403121561149157600080fd5b5035919050565b6000602082840312156114aa57600080fd5b81356114b58161143e565b9392505050565b600080604083850312156114cf57600080fd5b8235915060208301356114e18161143e565b809150509250929050565b6020808252825182820181905260009190848201906040850190845b8181101561152d5783516001600160a01b031683529284019291840191600101611508565b50909695505050505050565b634e487b7160e01b600052604160045260246000fd5b604051610140810167ffffffffffffffff8111828210171561157357611573611539565b60405290565b604051601f8201601f1916810167ffffffffffffffff811182821017156115a2576115a2611539565b604052919050565b600082601f8301126115bb57600080fd5b815167ffffffffffffffff8111156115d5576115d5611539565b60206115e9601f8301601f19168201611579565b82815285828487010111156115fd57600080fd5b60005b8381101561161b578581018301518282018401528201611600565b506000928101909101919091529392505050565b8051610a1d8161143e565b80518015158114610a1d57600080fd5b60006020828403121561165c57600080fd5b815167ffffffffffffffff8082111561167457600080fd5b90830190610140828603121561168957600080fd5b61169161154f565b825181526020830151828111156116a757600080fd5b6116b3878286016115aa565b6020830152506040830151828111156116cb57600080fd5b6116d7878286016115aa565b60408301525060608301516060820152608083015160808201526116fd60a0840161162f565b60a082015261170e60c0840161162f565b60c082015260e083810151908201526101008084015190820152610120915061173882840161163a565b91810191909152949350505050565b634e487b7160e01b600052601160045260246000fd5b80820180821115610ac757610ac7611747565b60006020828403121561178257600080fd5b5051919050565b8082028115828204841417610ac757610ac7611747565b6000826117bd57634e487b7160e01b600052601260045260246000fd5b500490565b81810381811115610ac757610ac7611747565b602080825260159082015274149958dbdc9908191bd95cc81b9bdd08195e1a5cdd605a1b60408201526060019056fea2646970667358221220ee08036d76f956076621367b7ef608a0ec351db7f5c0df720efacf089e6bd0f064736f6c63430008140033",
  "linkReferences": {},
  "deployedLinkReferences": {}
}