{
  "_format": "hh-sol-artifact-1",
  "contractName": "EDUToken",
  "sourceName": "contracts/EDUToken.sol",
  "abi": [
    {
      "inputs": [
        {
          "internalType": "string",
          "name": "name",
          "type": "string"
        },
        {
          "internalType": "string",
          "name": "symbol",
          "type": "string"
        },
        {
          "internalType": "uint256",
          "name": "initialSupply",
          "type": "uint256"
        }
      ],
      "stateMutability": "nonpayable",
      "type": "constructor"
    },
    {
      "inputs": [
        {
          "internalType": "address",
          "name": "spender",
          "type": "address"
        },
        {
          "internalType": "uint256",
          "name": "allowance",
          "type": "uint256"
        },
        {
          "internalType": "uint256",
          "name": "needed",
          "type": "uint256"
        }
      ],
      "name": "ERC20InsufficientAllowance",
      "type": "error"
    },
    {
      "inputs": [
        {
          "internalType": "address",
          "name": "sender",
          "type": "address"
        },
        {
          "internalType": "uint256",
          "name": "balance",
          "type": "uint256"
        },
        {
          "internalType": "uint256",
          "name": "needed",
          "type": "uint256"
        }
      ],
      "name": "ERC20InsufficientBalance",
      "type": "error"
    },
    {
      "inputs": [
        {
          "internalType": "address",
          "name": "approver",
          "type": "address"
        }
      ],
      "name": "ERC20InvalidApprover",
      "type": "error"
    },
    {
      "inputs": [
        {
          "internalType": "address",
          "name": "receiver",
          "type": "address"
        }
      ],
      "name": "ERC20InvalidReceiver",
      "type": "error"
    },
    {
      "inputs": [
        {
          "internalType": "address",
          "name": "sender",
          "type": "address"
        }
      ],
      "name": "ERC20InvalidSender",
      "type": "error"
    },
    {
      "inputs": [
        {
          "internalType": "address",
          "name": "spender",
          "type": "address"
        }
      ],
      "name": "ERC20InvalidSpender",
      "type": "error"
    },
    {
      "inputs": [
        {
          "internalType": "address",
          "name": "owner",
          "type": "address"
        }
      ],
      "name": "OwnableInvalidOwner",
      "type": "error"
    },
    {
      "inputs": [
        {
          "internalType": "address",
          "name": "account",
          "type": "address"
        }
      ],
      "name": "OwnableUnauthorizedAccount",
      "type": "error"
    },
    {
      "anonymous": false,
      "inputs": [
        {
          "indexed": true,
          "internalType": "address",
          "name": "recipient",
          "type": "address"
        },
        {
          "indexed": false,
          "internalType": "uint256",
          "name": "amount",
          "type": "uint256"
        }
      ],
      "name": "AirdropClaimed",
      "type": "event"
    },
    {
      "anonymous": false,
      "inputs": [
        {
          "indexed": true,
          "internalType": "address",
          "name": "recipient",
          "type": "address"
        },
        {
          "indexed": false,
          "internalType": "uint256",
          "name": "amount",
          "type": "uint256"
        },
        {
          "indexed": false,
          "internalType": "uint256",
          "name": "unlockTime",
          "type": "uint256"
        }
      ],
      "name": "AirdropLocked",
      "type": "event"
    },
    {
      "anonymous": false,
      "inputs": [
        {
          "indexed": true,
          "internalType": "address",
          "name": "owner",
          "type": "address"
        },
        {
          "indexed": true,
          "internalType": "address",
          "name": "spender",
          "type": "address"
        },
        {
          "indexed": false,
          "internalType": "uint256",
          "name": "value",
          "type": "uint256"
        }
      ],
      "name": "Approval",
      "type": "event"
    },
    {
      "anonymous": false,
      "inputs": [
        {
          "indexed": true,
          "internalType": "address",
          "name": "previousOwner",
          "type": "address"
        },
        {
          "indexed": true,
          "internalType": "address",
          "name": "newOwner",
          "type": "address"
        }
      ],
      "name": "OwnershipTransferred",
      "type": "event"
    },
    {
      "anonymous": false,
      "inputs": [
        {
          "indexed": false,
          "internalType": "uint256",
          "name": "amount",
          "type": "uint256"
        }
      ],
      "name": "ScholarshipFunded",
      "type": "event"
    },
    {
      "anonymous": false,
      "inputs": [
        {
          "indexed": true,
          "internalType": "address",
          "name": "from",
          "type": "address"
        },
        {
          "indexed": true,
          "internalType": "address",
          "name": "to",
          "type": "address"
        },
        {
          "indexed": false,
          "internalType": "uint256",
          "name": "value",
          "type": "uint256"
        }
      ],
      "name": "Transfer",
      "type": "event"
    },
    {
      "inputs": [],
      "name": "SCHOLARSHIP_PERCENT",
      "outputs": [
        {
          "internalType": "uint256",
          "name": "",
          "type": "uint256"
        }
      ],
      "stateMutability": "view",
      "type": "function"
    },
    {
      "inputs": [
        {
          "internalType": "address",
          "name": "",
          "type": "address"
        }
      ],
      "name": "airdropLock",
      "outputs": [
        {
          "internalType": "uint256",
          "name": "",
          "type": "uint256"
        }
      ],
      "stateMutability": "view",
      "type": "function"
    },
    {
      "inputs": [
        {
          "internalType": "address",
          "name": "owner",
          "type": "address"
        },
        {
          "internalType": "address",
          "name": "spender",
          "type": "address"
        }
      ],
      "name": "allowance",
      "outputs": [
        {
          "internalType": "uint256",
          "name": "",
          "type": "uint256"
        }
      ],
      "stateMutability": "view",
      "type": "function"
    },
    {
      "inputs": [
        {
          "internalType": "address",
          "name": "spender",
          "type": "address"
        },
        {
          "internalType": "uint256",
          "name": "value",
          "type": "uint256"
        }
      ],
      "name": "approve",
      "outputs": [
        {
          "internalType": "bool",
          "name": "",
          "type": "bool"
        }
      ],
      "stateMutability": "nonpayable",
      "type": "function"
    },
    {
      "inputs": [
        {
          "internalType": "address",
          "name": "account",
          "type": "address"
        }
      ],
      "name": "balanceOf",
      "outputs": [
        {
          "internalType": "uint256",
          "name": "",
          "type": "uint256"
        }
      ],
      "stateMutability": "view",
      "type": "function"
    },
    {
      "inputs": [
        {
          "internalType": "uint256",
          "name": "value",
          "type": "uint256"
        }
      ],
      "name": "burn",
      "outputs": [],
      "stateMutability": "nonpayable",
      "type": "function"
    },
    {
      "inputs": [
        {
          "internalType": "address",
          "name": "account",
          "type": "address"
        },
        {
          "internalType": "uint256",
          "name": "value",
          "type": "uint256"
        }
      ],
      "name": "burnFrom",
      "outputs": [],
      "stateMutability": "nonpayable",
      "type": "function"
    },
    {
      "inputs": [
        {
          "internalType": "uint256",
          "name": "amount",
          "type": "uint256"
        }
      ],
      "name": "burnWithScholarship",
      "outputs": [],
      "stateMutability": "nonpayable",
      "type": "function"
    },
    {
      "inputs": [],
      "name": "decimals",
      "outputs": [
        {
          "internalType": "uint8",
          "name": "",
          "type": "uint8"
        }
      ],
      "stateMutability": "view",
      "type": "function"
    },
    {
      "inputs": [
        {
          "internalType": "address",
          "name": "recipient",
          "type": "address"
        },
        {
          "internalType": "uint256",
          "name": "amount",
          "type": "uint256"
        },
        {
          "internalType": "uint256",
          "name": "lockDuration",
          "type": "uint256"
        }
      ],
      "name": "lockAirdrop",
      "outputs": [],
      "stateMutability": "nonpayable",
      "type": "function"
    },
    {
      "inputs": [
        {
          "internalType": "address",
          "name": "to",
          "type": "address"
        },
        {
          "internalType": "uint256",
          "name": "amount",
          "type": "uint256"
        }
      ],
      "name": "mint",
      "outputs": [],
      "stateMutability": "nonpayable",
      "type": "function"
    },
    {
      "inputs": [],
      "name": "name",
      "outputs": [
        {
          "internalType": "string",
          "name": "",
          "type": "string"
        }
      ],
      "stateMutability": "view",
      "type": "function"
    },
    {
      "inputs": [],
      "name": "owner",
      "outputs": [
        {
          "internalType": "address",
          "name": "",
          "type": "address"
        }
      ],
      "stateMutability": "view",
      "type": "function"
    },
    {
      "inputs": [],
      "name": "renounceOwnership",
      "outputs": [],
      "stateMutability": "nonpayable",
      "type": "function"
    },
    {
      "inputs": [],
      "name": "scholarshipPool",
      "outputs": [
        {
          "internalType": "address",
          "name": "",
          "type": "address"
        }
      ],
      "stateMutability": "view",
      "type": "function"
    },
    {
      "inputs": [
        {
          "internalType": "address",
          "name": "_scholarshipPool",
          "type": "address"
        }
      ],
      "name": "setScholarshipPool",
      "outputs": [],
      "stateMutability": "nonpayable",
      "type": "function"
    },
    {
      "inputs": [],
      "name": "symbol",
      "outputs": [
        {
          "internalType": "string",
          "name": "",
          "type": "string"
        }
      ],
      "stateMutability": "view",
      "type": "function"
    },
    {
      "inputs": [],
      "name": "totalSupply",
      "outputs": [
        {
          "internalType": "uint256",
          "name": "",
          "type": "uint256"
        }
      ],
      "stateMutability": "view",
      "type": "function"
    },
    {
      "inputs": [
        {
          "internalType": "address",
          "name": "to",
          "type": "address"
        },
        {
          "internalType": "uint256",
          "name": "amount",
          "type": "uint256"
        }
      ],
      "name": "transfer",
      "outputs": [
        {
          "internalType": "bool",
          "name": "",
          "type": "bool"
        }
      ],
      "stateMutability": "nonpayable",
      "type": "function"
    },
    {
      "inputs": [
        {
          "internalType": "address",
          "name": "from",
          "type": "address"
        },
        {
          "internalType": "address",
          "name": "to",
          "type": "address"
        },
        {
          "internalType": "uint256",
          "name": "amount",
          "type": "uint256"
        }
      ],
      "name": "transferFrom",
      "outputs": [
        {
          "internalType": "bool",
          "name": "",
          "type": "bool"
        }
      ],
      "stateMutability": "nonpayable",
      "type": "function"
    },
    {
      "inputs": [
        {
          "internalType": "address",
          "name": "newOwner",
          "type": "address"
        }
      ],
      "name": "transferOwnership",
      "outputs": [],
      "stateMutability": "nonpayable",
      "type": "function"
    }
  ],
  "bytecode": "0x60806040523480156200001157600080fd5b50604051620013f7380380620013f7833981016040819052620000349162000342565b338383600362000045838262000444565b50600462000054828262000444565b5050506001600160a01b0381166200008757604051631e4fbdf760e01b8152600060048201526024015b60405180910390fd5b6200009281620000ba565b506200009f33826200010c565b5050600780546001600160a01b031916301790555062000538565b600580546001600160a01b038381166001600160a01b0319831681179093556040519116919082907f8be0079c531659141344cd1fd0a4f28419497f9722a3daafe3b4186f6b6457e090600090a35050565b6001600160a01b038216620001385760405163ec442f0560e01b8152600060048201526024016200007e565b62000146600083836200014a565b5050565b6001600160a01b038316620001795780600260008282546200016d919062000510565b90915550620001ed9050565b6001600160a01b03831660009081526020819052604090205481811015620001ce5760405163391434e360e21b81526001600160a01b038516600482015260248101829052604481018390526064016200007e565b6001600160a01b03841660009081526020819052604090209082900390555b6001600160a01b0382166200020b576002805482900390556200022a565b6001600160a01b03821660009081526020819052604090208054820190555b816001600160a01b0316836001600160a01b03167fddf252ad1be2c89b69c2b068fc378daa952ba7f163c4a11628f55a4df523b3ef836040516200027091815260200190565b60405180910390a3505050565b634e487b7160e01b600052604160045260246000fd5b600082601f830112620002a557600080fd5b81516001600160401b0380821115620002c257620002c26200027d565b604051601f8301601f19908116603f01168101908282118183101715620002ed57620002ed6200027d565b816040528381526020925086838588010111156200030a57600080fd5b600091505b838210156200032e57858201830151818301840152908201906200030f565b600093810190920192909252949350505050565b6000806000606084860312156200035857600080fd5b83516001600160401b03808211156200037057600080fd5b6200037e8783880162000293565b945060208601519150808211156200039557600080fd5b50620003a48682870162000293565b925050604084015190509250925092565b600181811c90821680620003ca57607f821691505b602082108103620003eb57634e487b7160e01b600052602260045260246000fd5b50919050565b601f8211156200043f57600081815260208120601f850160051c810160208610156200041a5750805b601f850160051c820191505b818110156200043b5782815560010162000426565b5050505b505050565b81516001600160401b038111156200046057620004606200027d565b6200047881620004718454620003b5565b84620003f1565b602080601f831160018114620004b05760008415620004975750858301515b600019600386901b1c1916600185901b1785556200043b565b600085815260208120601f198616915b82811015620004e157888601518255948401946001909101908401620004c0565b5085821015620005005787850151600019600388901b60f8161c191681555b5050505050600190811b01905550565b808201808211156200053257634e487b7160e01b600052601160045260246000fd5b92915050565b610eaf80620005486000396000f3fe608060405234801561001057600080fd5b50600436106101375760003560e01c806379cc6790116100b8578063a9059cbb1161007c578063a9059cbb14610294578063ad5c63f2146102a7578063cbbb185d146102ba578063dd62ed3e146102cd578063f2fde38b14610306578063fd9f2dc11461031957600080fd5b806379cc67901461022a5780637adaf26c1461023d5780637baee70d146102505780638da5cb5b1461027b57806395d89b411461028c57600080fd5b806340c10f19116100ff57806340c10f19146101b157806342966c68146101c657806348aecaec146101d957806370a08231146101f9578063715018a61461022257600080fd5b806306fdde031461013c578063095ea7b31461015a57806318160ddd1461017d57806323b872dd1461018f578063313ce567146101a2575b600080fd5b610144610321565b6040516101519190610c60565b60405180910390f35b61016d610168366004610cca565b6103b3565b6040519015158152602001610151565b6002545b604051908152602001610151565b61016d61019d366004610cf4565b6103cd565b60405160128152602001610151565b6101c46101bf366004610cca565b610498565b005b6101c46101d4366004610d30565b6104ae565b6101816101e7366004610d49565b60066020526000908152604090205481565b610181610207366004610d49565b6001600160a01b031660009081526020819052604090205490565b6101c46104bb565b6101c4610238366004610cca565b6104cf565b6101c461024b366004610d30565b6104e4565b600754610263906001600160a01b031681565b6040516001600160a01b039091168152602001610151565b6005546001600160a01b0316610263565b6101446105b8565b61016d6102a2366004610cca565b6105c7565b6101c46102b5366004610d49565b610667565b6101c46102c8366004610d64565b6106e7565b6101816102db366004610d97565b6001600160a01b03918216600090815260016020908152604080832093909416825291909152205490565b6101c4610314366004610d49565b610819565b610181600581565b60606003805461033090610dca565b80601f016020809104026020016040519081016040528092919081815260200182805461035c90610dca565b80156103a95780601f1061037e576101008083540402835291602001916103a9565b820191906000526020600020905b81548152906001019060200180831161038c57829003601f168201915b5050505050905090565b6000336103c1818585610854565b60019150505b92915050565b6001600160a01b03831660009081526006602052604081205415610485576001600160a01b03841660009081526006602052604090205442101561044c5760405162461bcd60e51b8152602060048201526011602482015270151bdad95b9cc8185c99481b1bd8dad959607a1b60448201526064015b60405180910390fd5b6001600160a01b0384166000908152600660205260409020544210610485576001600160a01b0384166000908152600660205260408120555b610490848484610866565b949350505050565b6104a061088a565b6104aa82826108b7565b5050565b6104b833826108ed565b50565b6104c361088a565b6104cd6000610923565b565b6104da823383610975565b6104aa82826108ed565b600081116105345760405162461bcd60e51b815260206004820152601d60248201527f416d6f756e74206d7573742062652067726561746572207468616e20300000006044820152606401610443565b60006064610543600584610e1a565b61054d9190610e31565b9050600061055b8284610e53565b6007549091506105769033906001600160a01b0316846109f4565b61058033826108ed565b6040518281527f69529d4ae3efcfe0d14db2dc726530bb9f9d12208ec033039b5021d004ad23c19060200160405180910390a1505050565b60606004805461033090610dca565b3360009081526006602052604081205415610656573360009081526006602052604090205442101561062f5760405162461bcd60e51b8152602060048201526011602482015270151bdad95b9cc8185c99481b1bd8dad959607a1b6044820152606401610443565b33600090815260066020526040902054421061065657336000908152600660205260408120555b6106608383610a53565b9392505050565b61066f61088a565b6001600160a01b0381166106c55760405162461bcd60e51b815260206004820181905260248201527f496e76616c6964207363686f6c61727368697020706f6f6c20616464726573736044820152606401610443565b600780546001600160a01b0319166001600160a01b0392909216919091179055565b6106ef61088a565b6000821161073f5760405162461bcd60e51b815260206004820152601d60248201527f416d6f756e74206d7573742062652067726561746572207468616e20300000006044820152606401610443565b6000811161079b5760405162461bcd60e51b8152602060048201526024808201527f4c6f636b206475726174696f6e206d75737420626520677265617465722074686044820152630616e20360e41b6064820152608401610443565b60006107a78242610e66565b6001600160a01b038516600090815260066020526040902081905590506107cf3385856109f4565b60408051848152602081018390526001600160a01b038616917fcd888ea6710e20204f93940c308ae660dcd832ca5228398aa4cf5a612a9ccc61910160405180910390a250505050565b61082161088a565b6001600160a01b03811661084b57604051631e4fbdf760e01b815260006004820152602401610443565b6104b881610923565b6108618383836001610a61565b505050565b600033610874858285610975565b61087f8585856109f4565b506001949350505050565b6005546001600160a01b031633146104cd5760405163118cdaa760e01b8152336004820152602401610443565b6001600160a01b0382166108e15760405163ec442f0560e01b815260006004820152602401610443565b6104aa60008383610b36565b6001600160a01b03821661091757604051634b637e8f60e11b815260006004820152602401610443565b6104aa82600083610b36565b600580546001600160a01b038381166001600160a01b0319831681179093556040519116919082907f8be0079c531659141344cd1fd0a4f28419497f9722a3daafe3b4186f6b6457e090600090a35050565b6001600160a01b038381166000908152600160209081526040808320938616835292905220546000198110156109ee57818110156109df57604051637dc7a0d960e11b81526001600160a01b03841660048201526024810182905260448101839052606401610443565b6109ee84848484036000610a61565b50505050565b6001600160a01b038316610a1e57604051634b637e8f60e11b815260006004820152602401610443565b6001600160a01b038216610a485760405163ec442f0560e01b815260006004820152602401610443565b610861838383610b36565b6000336103c18185856109f4565b6001600160a01b038416610a8b5760405163e602df0560e01b815260006004820152602401610443565b6001600160a01b038316610ab557604051634a1406b160e11b815260006004820152602401610443565b6001600160a01b03808516600090815260016020908152604080832093871683529290522082905580156109ee57826001600160a01b0316846001600160a01b03167f8c5be1e5ebec7d5bd14f71427d1e84f3dd0314c0f7b2291e5b200ac8c7c3b92584604051610b2891815260200190565b60405180910390a350505050565b6001600160a01b038316610b61578060026000828254610b569190610e66565b90915550610bd39050565b6001600160a01b03831660009081526020819052604090205481811015610bb45760405163391434e360e21b81526001600160a01b03851660048201526024810182905260448101839052606401610443565b6001600160a01b03841660009081526020819052604090209082900390555b6001600160a01b038216610bef57600280548290039055610c0e565b6001600160a01b03821660009081526020819052604090208054820190555b816001600160a01b0316836001600160a01b03167fddf252ad1be2c89b69c2b068fc378daa952ba7f163c4a11628f55a4df523b3ef83604051610c5391815260200190565b60405180910390a3505050565b600060208083528351808285015260005b81811015610c8d57858101830151858201604001528201610c71565b506000604082860101526040601f19601f8301168501019250505092915050565b80356001600160a01b0381168114610cc557600080fd5b919050565b60008060408385031215610cdd57600080fd5b610ce683610cae565b946020939093013593505050565b600080600060608486031215610d0957600080fd5b610d1284610cae565b9250610d2060208501610cae565b9150604084013590509250925092565b600060208284031215610d4257600080fd5b5035919050565b600060208284031215610d5b57600080fd5b61066082610cae565b600080600060608486031215610d7957600080fd5b610d8284610cae565b95602085013595506040909401359392505050565b60008060408385031215610daa57600080fd5b610db383610cae565b9150610dc160208401610cae565b90509250929050565b600181811c90821680610dde57607f821691505b602082108103610dfe57634e487b7160e01b600052602260045260246000fd5b50919050565b634e487b7160e01b600052601160045260246000fd5b80820281158282048414176103c7576103c7610e04565b600082610e4e57634e487b7160e01b600052601260045260246000fd5b500490565b818103818111156103c7576103c7610e04565b808201808211156103c7576103c7610e0456fea26469706673582212209a93ff55cde2e8df4fda76f8b7830a855a9a7fdd3639a6d6e18ca8b7c96ac3ac64736f6c63430008140033",
  "linkReferences": {},
  "deployedLinkReferences": {}
}