{
  "_format": "hh-sol-artifact-1",
  "contractName": "CourseToken",
  "sourceName": "contracts/CourseToken.sol",
  "abi": [
    {
      "inputs": [
        {
          "internalType": "string",
          "name": "name",
          "type": "string"
        },
        {
          "internalType": "string",
          "name": "symbol",
          "type": "string"
        },
        {
          "internalType": "uint256",
          "name": "totalSupply",
          "type": "uint256"
        },
        {
          "internalType": "address",
          "name": "creator",
          "type": "address"
        }
      ],
      "stateMutability": "nonpayable",
      "type": "constructor"
    },
    {
      "inputs": [
        {
          "internalType": "address",
          "name": "spender",
          "type": "address"
        },
        {
          "internalType": "uint256",
          "name": "allowance",
          "type": "uint256"
        },
        {
          "internalType": "uint256",
          "name": "needed",
          "type": "uint256"
        }
      ],
      "name": "ERC20InsufficientAllowance",
      "type": "error"
    },
    {
      "inputs": [
        {
          "internalType": "address",
          "name": "sender",
          "type": "address"
        },
        {
          "internalType": "uint256",
          "name": "balance",
          "type": "uint256"
        },
        {
          "internalType": "uint256",
          "name": "needed",
          "type": "uint256"
        }
      ],
      "name": "ERC20InsufficientBalance",
      "type": "error"
    },
    {
      "inputs": [
        {
          "internalType": "address",
          "name": "approver",
          "type": "address"
        }
      ],
      "name": "ERC20InvalidApprover",
      "type": "error"
    },
    {
      "inputs": [
        {
          "internalType": "address",
          "name": "receiver",
          "type": "address"
        }
      ],
      "name": "ERC20InvalidReceiver",
      "type": "error"
    },
    {
      "inputs": [
        {
          "internalType": "address",
          "name": "sender",
          "type": "address"
        }
      ],
      "name": "ERC20InvalidSender",
      "type": "error"
    },
    {
      "inputs": [
        {
          "internalType": "address",
          "name": "spender",
          "type": "address"
        }
      ],
      "name": "ERC20InvalidSpender",
      "type": "error"
    },
    {
      "inputs": [
        {
          "internalType": "address",
          "name": "owner",
          "type": "address"
        }
      ],
      "name": "OwnableInvalidOwner",
      "type": "error"
    },
    {
      "inputs": [
        {
          "internalType": "address",
          "name": "account",
          "type": "address"
        }
      ],
      "name": "OwnableUnauthorizedAccount",
      "type": "error"
    },
    {
      "anonymous": false,
      "inputs": [
        {
          "indexed": true,
          "internalType": "address",
          "name": "owner",
          "type": "address"
        },
        {
          "indexed": true,
          "internalType": "address",
          "name": "spender",
          "type": "address"
        },
        {
          "indexed": false,
          "internalType": "uint256",
          "name": "value",
          "type": "uint256"
        }
      ],
      "name": "Approval",
      "type": "event"
    },
    {
      "anonymous": false,
      "inputs": [
        {
          "indexed": true,
          "internalType": "address",
          "name": "previousOwner",
          "type": "address"
        },
        {
          "indexed": true,
          "internalType": "address",
          "name": "newOwner",
          "type": "address"
        }
      ],
      "name": "OwnershipTransferred",
      "type": "event"
    },
    {
      "anonymous": false,
      "inputs": [
        {
          "indexed": true,
          "internalType": "address",
          "name": "from",
          "type": "address"
        },
        {
          "indexed": true,
          "internalType": "address",
          "name": "to",
          "type": "address"
        },
        {
          "indexed": false,
          "internalType": "uint256",
          "name": "taxAmount",
          "type": "uint256"
        }
      ],
      "name": "TaxCollected",
      "type": "event"
    },
    {
      "anonymous": false,
      "inputs": [
        {
          "indexed": false,
          "internalType": "uint256",
          "name": "burnAmount",
          "type": "uint256"
        },
        {
          "indexed": false,
          "internalType": "uint256",
          "name": "scholarshipAmount",
          "type": "uint256"
        }
      ],
      "name": "TaxDistributed",
      "type": "event"
    },
    {
      "anonymous": false,
      "inputs": [
        {
          "indexed": true,
          "internalType": "address",
          "name": "from",
          "type": "address"
        },
        {
          "indexed": true,
          "internalType": "address",
          "name": "to",
          "type": "address"
        },
        {
          "indexed": false,
          "internalType": "uint256",
          "name": "value",
          "type": "uint256"
        }
      ],
      "name": "Transfer",
      "type": "event"
    },
    {
      "inputs": [
        {
          "internalType": "address",
          "name": "owner",
          "type": "address"
        },
        {
          "internalType": "address",
          "name": "spender",
          "type": "address"
        }
      ],
      "name": "allowance",
      "outputs": [
        {
          "internalType": "uint256",
          "name": "",
          "type": "uint256"
        }
      ],
      "stateMutability": "view",
      "type": "function"
    },
    {
      "inputs": [
        {
          "internalType": "address",
          "name": "spender",
          "type": "address"
        },
        {
          "internalType": "uint256",
          "name": "value",
          "type": "uint256"
        }
      ],
      "name": "approve",
      "outputs": [
        {
          "internalType": "bool",
          "name": "",
          "type": "bool"
        }
      ],
      "stateMutability": "nonpayable",
      "type": "function"
    },
    {
      "inputs": [
        {
          "internalType": "address",
          "name": "account",
          "type": "address"
        }
      ],
      "name": "balanceOf",
      "outputs": [
        {
          "internalType": "uint256",
          "name": "",
          "type": "uint256"
        }
      ],
      "stateMutability": "view",
      "type": "function"
    },
    {
      "inputs": [],
      "name": "burnTaxPercentage",
      "outputs": [
        {
          "internalType": "uint256",
          "name": "",
          "type": "uint256"
        }
      ],
      "stateMutability": "view",
      "type": "function"
    },
    {
      "inputs": [],
      "name": "communityIncentivesAddress",
      "outputs": [
        {
          "internalType": "address",
          "name": "",
          "type": "address"
        }
      ],
      "stateMutability": "view",
      "type": "function"
    },
    {
      "inputs": [],
      "name": "decimals",
      "outputs": [
        {
          "internalType": "uint8",
          "name": "",
          "type": "uint8"
        }
      ],
      "stateMutability": "view",
      "type": "function"
    },
    {
      "inputs": [
        {
          "internalType": "address",
          "name": "holder",
          "type": "address"
        }
      ],
      "name": "getHoldingDuration",
      "outputs": [
        {
          "internalType": "uint256",
          "name": "",
          "type": "uint256"
        }
      ],
      "stateMutability": "view",
      "type": "function"
    },
    {
      "inputs": [
        {
          "internalType": "address",
          "name": "",
          "type": "address"
        }
      ],
      "name": "holdingSince",
      "outputs": [
        {
          "internalType": "uint256",
          "name": "",
          "type": "uint256"
        }
      ],
      "stateMutability": "view",
      "type": "function"
    },
    {
      "inputs": [],
      "name": "liquidityPoolAddress",
      "outputs": [
        {
          "internalType": "address",
          "name": "",
          "type": "address"
        }
      ],
      "stateMutability": "view",
      "type": "function"
    },
    {
      "inputs": [],
      "name": "name",
      "outputs": [
        {
          "internalType": "string",
          "name": "",
          "type": "string"
        }
      ],
      "stateMutability": "view",
      "type": "function"
    },
    {
      "inputs": [],
      "name": "owner",
      "outputs": [
        {
          "internalType": "address",
          "name": "",
          "type": "address"
        }
      ],
      "stateMutability": "view",
      "type": "function"
    },
    {
      "inputs": [],
      "name": "renounceOwnership",
      "outputs": [],
      "stateMutability": "nonpayable",
      "type": "function"
    },
    {
      "inputs": [],
      "name": "scholarshipPoolAddress",
      "outputs": [
        {
          "internalType": "address",
          "name": "",
          "type": "address"
        }
      ],
      "stateMutability": "view",
      "type": "function"
    },
    {
      "inputs": [],
      "name": "scholarshipTaxPercentage",
      "outputs": [
        {
          "internalType": "uint256",
          "name": "",
          "type": "uint256"
        }
      ],
      "stateMutability": "view",
      "type": "function"
    },
    {
      "inputs": [
        {
          "internalType": "address",
          "name": "_liquidityPoolAddress",
          "type": "address"
        },
        {
          "internalType": "address",
          "name": "_communityIncentivesAddress",
          "type": "address"
        },
        {
          "internalType": "address",
          "name": "_scholarshipPoolAddress",
          "type": "address"
        }
      ],
      "name": "setAddresses",
      "outputs": [],
      "stateMutability": "nonpayable",
      "type": "function"
    },
    {
      "inputs": [
        {
          "internalType": "uint256",
          "name": "burnPercentage",
          "type": "uint256"
        },
        {
          "internalType": "uint256",
          "name": "scholarshipPercentage",
          "type": "uint256"
        }
      ],
      "name": "setTaxDistribution",
      "outputs": [],
      "stateMutability": "nonpayable",
      "type": "function"
    },
    {
      "inputs": [
        {
          "internalType": "uint256",
          "name": "newRate",
          "type": "uint256"
        }
      ],
      "name": "setTradeTaxRate",
      "outputs": [],
      "stateMutability": "nonpayable",
      "type": "function"
    },
    {
      "inputs": [],
      "name": "symbol",
      "outputs": [
        {
          "internalType": "string",
          "name": "",
          "type": "string"
        }
      ],
      "stateMutability": "view",
      "type": "function"
    },
    {
      "inputs": [],
      "name": "totalSupply",
      "outputs": [
        {
          "internalType": "uint256",
          "name": "",
          "type": "uint256"
        }
      ],
      "stateMutability": "view",
      "type": "function"
    },
    {
      "inputs": [],
      "name": "tradeTaxRate",
      "outputs": [
        {
          "internalType": "uint256",
          "name": "",
          "type": "uint256"
        }
      ],
      "stateMutability": "view",
      "type": "function"
    },
    {
      "inputs": [
        {
          "internalType": "address",
          "name": "to",
          "type": "address"
        },
        {
          "internalType": "uint256",
          "name": "amount",
          "type": "uint256"
        }
      ],
      "name": "transfer",
      "outputs": [
        {
          "internalType": "bool",
          "name": "",
          "type": "bool"
        }
      ],
      "stateMutability": "nonpayable",
      "type": "function"
    },
    {
      "inputs": [
        {
          "internalType": "address",
          "name": "from",
          "type": "address"
        },
        {
          "internalType": "address",
          "name": "to",
          "type": "address"
        },
        {
          "internalType": "uint256",
          "name": "amount",
          "type": "uint256"
        }
      ],
      "name": "transferFrom",
      "outputs": [
        {
          "internalType": "bool",
          "name": "",
          "type": "bool"
        }
      ],
      "stateMutability": "nonpayable",
      "type": "function"
    },
    {
      "inputs": [
        {
          "internalType": "address",
          "name": "newOwner",
          "type": "address"
        }
      ],
      "name": "transferOwnership",
      "outputs": [],
      "stateMutability": "nonpayable",
      "type": "function"
    }
  ],
  "bytecode": "0x6080604052601460085560326009556032600a553480156200002057600080fd5b50604051620016c9380380620016c98339810160408190526200004391620003dc565b808484600362000054838262000500565b50600462000063828262000500565b5050506001600160a01b0381166200009657604051631e4fbdf760e01b8152600060048201526024015b60405180910390fd5b620000a18162000154565b50600680546001600160a01b0383166001600160a01b0319918216811790925560078054821683179055600b805490911682179055620000fc906064620000ea603c86620005e2565b620000f6919062000602565b620001a6565b62000110816064620000ea601486620005e2565b60075462000130906001600160a01b03166064620000ea601486620005e2565b6001600160a01b03166000908152600c60205260409020429055506200063b915050565b600580546001600160a01b038381166001600160a01b0319831681179093556040519116919082907f8be0079c531659141344cd1fd0a4f28419497f9722a3daafe3b4186f6b6457e090600090a35050565b6001600160a01b038216620001d25760405163ec442f0560e01b8152600060048201526024016200008d565b620001e060008383620001e4565b5050565b6001600160a01b0383166200021357806002600082825462000207919062000625565b90915550620002879050565b6001600160a01b03831660009081526020819052604090205481811015620002685760405163391434e360e21b81526001600160a01b038516600482015260248101829052604481018390526064016200008d565b6001600160a01b03841660009081526020819052604090209082900390555b6001600160a01b038216620002a557600280548290039055620002c4565b6001600160a01b03821660009081526020819052604090208054820190555b816001600160a01b0316836001600160a01b03167fddf252ad1be2c89b69c2b068fc378daa952ba7f163c4a11628f55a4df523b3ef836040516200030a91815260200190565b60405180910390a3505050565b634e487b7160e01b600052604160045260246000fd5b600082601f8301126200033f57600080fd5b81516001600160401b03808211156200035c576200035c62000317565b604051601f8301601f19908116603f0116810190828211818310171562000387576200038762000317565b81604052838152602092508683858801011115620003a457600080fd5b600091505b83821015620003c85785820183015181830184015290820190620003a9565b600093810190920192909252949350505050565b60008060008060808587031215620003f357600080fd5b84516001600160401b03808211156200040b57600080fd5b62000419888389016200032d565b955060208701519150808211156200043057600080fd5b506200043f878288016200032d565b60408701516060880151919550935090506001600160a01b03811681146200046657600080fd5b939692955090935050565b600181811c908216806200048657607f821691505b602082108103620004a757634e487b7160e01b600052602260045260246000fd5b50919050565b601f821115620004fb57600081815260208120601f850160051c81016020861015620004d65750805b601f850160051c820191505b81811015620004f757828155600101620004e2565b5050505b505050565b81516001600160401b038111156200051c576200051c62000317565b62000534816200052d845462000471565b84620004ad565b602080601f8311600181146200056c5760008415620005535750858301515b600019600386901b1c1916600185901b178555620004f7565b600085815260208120601f198616915b828110156200059d578886015182559484019460019091019084016200057c565b5085821015620005bc5787850151600019600388901b60f8161c191681555b5050505050600190811b01905550565b634e487b7160e01b600052601160045260246000fd5b8082028115828204841417620005fc57620005fc620005cc565b92915050565b6000826200062057634e487b7160e01b600052601260045260246000fd5b500490565b80820180821115620005fc57620005fc620005cc565b61107e806200064b6000396000f3fe608060405234801561001057600080fd5b506004361061014d5760003560e01c806395d89b41116100c3578063bbb2dfa51161007c578063bbb2dfa5146102a5578063c3fdfbb4146102b8578063cbcf8cae146102d8578063d25b17b6146102eb578063dd62ed3e146102fe578063f2fde38b1461033757600080fd5b806395d89b41146102525780639f15e6781461025a578063a031cf2e14610263578063a1d609001461026c578063a9059cbb1461027f578063aa95e3591461029257600080fd5b8063363bf96411610115578063363bf964146101c757806340e468c9146101dc57806370a0823114610207578063715018a6146102305780638da5cb5b146102385780638ed0524b1461024957600080fd5b806306fdde0314610152578063095ea7b31461017057806318160ddd1461019357806323b872dd146101a5578063313ce567146101b8575b600080fd5b61015a61034a565b6040516101679190610dfd565b60405180910390f35b61018361017e366004610e67565b6103dc565b6040519015158152602001610167565b6002545b604051908152602001610167565b6101836101b3366004610e91565b6103f6565b60405160128152602001610167565b6101da6101d5366004610ecd565b610418565b005b600b546101ef906001600160a01b031681565b6040516001600160a01b039091168152602001610167565b610197610215366004610f10565b6001600160a01b031660009081526020819052604090205490565b6101da610572565b6005546001600160a01b03166101ef565b61019760085481565b61015a610586565b610197600a5481565b61019760095481565b61019761027a366004610f10565b610595565b61018361028d366004610e67565b6105df565b6007546101ef906001600160a01b031681565b6101da6102b3366004610f2b565b6105f3565b6101976102c6366004610f10565b600c6020526000908152604090205481565b6101da6102e6366004610f44565b610645565b6006546101ef906001600160a01b031681565b61019761030c366004610f66565b6001600160a01b03918216600090815260016020908152604080832093909416825291909152205490565b6101da610345366004610f10565b6106b1565b60606003805461035990610f99565b80601f016020809104026020016040519081016040528092919081815260200182805461038590610f99565b80156103d25780601f106103a7576101008083540402835291602001916103d2565b820191906000526020600020905b8154815290600101906020018083116103b557829003601f168201915b5050505050905090565b6000336103ea8185856106ef565b60019150505b92915050565b600033610404858285610701565b61040f85858561077f565b95945050505050565b610420610ae6565b6001600160a01b03831661047b5760405162461bcd60e51b815260206004820152601e60248201527f496e76616c6964206c697175696469747920706f6f6c2061646472657373000060448201526064015b60405180910390fd5b6001600160a01b0382166104dd5760405162461bcd60e51b8152602060048201526024808201527f496e76616c696420636f6d6d756e69747920696e63656e7469766573206164646044820152637265737360e01b6064820152608401610472565b6001600160a01b0381166105335760405162461bcd60e51b815260206004820181905260248201527f496e76616c6964207363686f6c61727368697020706f6f6c20616464726573736044820152606401610472565b600680546001600160a01b039485166001600160a01b0319918216179091556007805493851693821693909317909255600b8054919093169116179055565b61057a610ae6565b6105846000610b13565b565b60606004805461035990610f99565b6001600160a01b0381166000908152600c602052604081205481036105bc57506000919050565b6001600160a01b0382166000908152600c60205260409020546103f09042610fe9565b60006105ec33848461077f565b9392505050565b6105fb610ae6565b60328111156106405760405162461bcd60e51b81526020600482015260116024820152700a8c2f040e4c2e8ca40e8dede40d0d2ced607b1b6044820152606401610472565b600855565b61064d610ae6565b6106578183610ffc565b6064146106a65760405162461bcd60e51b815260206004820152601b60248201527f50657263656e7461676573206d7573742073756d20746f2031303000000000006044820152606401610472565b600991909155600a55565b6106b9610ae6565b6001600160a01b0381166106e357604051631e4fbdf760e01b815260006004820152602401610472565b6106ec81610b13565b50565b6106fc8383836001610b65565b505050565b6001600160a01b038381166000908152600160209081526040808320938616835292905220546000198114610779578181101561076a57604051637dc7a0d960e11b81526001600160a01b03841660048201526024810182905260448101839052606401610472565b61077984848484036000610b65565b50505050565b60006001600160a01b0384166107d75760405162461bcd60e51b815260206004820152601a60248201527f5472616e736665722066726f6d207a65726f20616464726573730000000000006044820152606401610472565b6001600160a01b03831661082d5760405162461bcd60e51b815260206004820152601860248201527f5472616e7366657220746f207a65726f206164647265737300000000000000006044820152606401610472565b60006108416005546001600160a01b031690565b6001600160a01b0316856001600160a01b0316148061086d57506005546001600160a01b038581169116145b8061088557506006546001600160a01b038681169116145b8061089d57506006546001600160a01b038581169116145b806108b557506007546001600160a01b038681169116145b806108cd57506007546001600160a01b038581169116145b806108e55750600b546001600160a01b038681169116145b6008549091508115801561091057506001600160a01b0386166000908152600c602052604090205415155b15610986576001600160a01b0386166000908152600c60205260408120546109389042610fe9565b905062093a8081111561095f57606461095283605061100f565b61095c9190611026565b91505b62278d0081111561098457606461097783603c61100f565b6109819190611026565b91505b505b6000826109a7576103e861099a838761100f565b6109a49190611026565b90505b8015610ab35760006064600954836109bf919061100f565b6109c99190611026565b905060006109d78284610fe9565b90506109e4893085610c3a565b6109f889896109f3868b610fe9565b610c3a565b8115610a0857610a083083610c99565b8015610a2657600b54610a269030906001600160a01b031683610c3a565b876001600160a01b0316896001600160a01b03167f5d37fd68fe66745a199f8c603e00ae02183f4aabb8ec0089589b0b40c4ead5e185604051610a6b91815260200190565b60405180910390a360408051838152602081018390527ff13a097c86c35dc1a2adcff5f61fd6fcff9e7f01c572f413c7b48e48cf390cd4910160405180910390a15050610abe565b610abe878787610c3a565b5050506001600160a01b0383166000908152600c602052604090204290555060019392505050565b6005546001600160a01b031633146105845760405163118cdaa760e01b8152336004820152602401610472565b600580546001600160a01b038381166001600160a01b0319831681179093556040519116919082907f8be0079c531659141344cd1fd0a4f28419497f9722a3daafe3b4186f6b6457e090600090a35050565b6001600160a01b038416610b8f5760405163e602df0560e01b815260006004820152602401610472565b6001600160a01b038316610bb957604051634a1406b160e11b815260006004820152602401610472565b6001600160a01b038085166000908152600160209081526040808320938716835292905220829055801561077957826001600160a01b0316846001600160a01b03167f8c5be1e5ebec7d5bd14f71427d1e84f3dd0314c0f7b2291e5b200ac8c7c3b92584604051610c2c91815260200190565b60405180910390a350505050565b6001600160a01b038316610c6457604051634b637e8f60e11b815260006004820152602401610472565b6001600160a01b038216610c8e5760405163ec442f0560e01b815260006004820152602401610472565b6106fc838383610cd3565b6001600160a01b038216610cc357604051634b637e8f60e11b815260006004820152602401610472565b610ccf82600083610cd3565b5050565b6001600160a01b038316610cfe578060026000828254610cf39190610ffc565b90915550610d709050565b6001600160a01b03831660009081526020819052604090205481811015610d515760405163391434e360e21b81526001600160a01b03851660048201526024810182905260448101839052606401610472565b6001600160a01b03841660009081526020819052604090209082900390555b6001600160a01b038216610d8c57600280548290039055610dab565b6001600160a01b03821660009081526020819052604090208054820190555b816001600160a01b0316836001600160a01b03167fddf252ad1be2c89b69c2b068fc378daa952ba7f163c4a11628f55a4df523b3ef83604051610df091815260200190565b60405180910390a3505050565b600060208083528351808285015260005b81811015610e2a57858101830151858201604001528201610e0e565b506000604082860101526040601f19601f8301168501019250505092915050565b80356001600160a01b0381168114610e6257600080fd5b919050565b60008060408385031215610e7a57600080fd5b610e8383610e4b565b946020939093013593505050565b600080600060608486031215610ea657600080fd5b610eaf84610e4b565b9250610ebd60208501610e4b565b9150604084013590509250925092565b600080600060608486031215610ee257600080fd5b610eeb84610e4b565b9250610ef960208501610e4b565b9150610f0760408501610e4b565b90509250925092565b600060208284031215610f2257600080fd5b6105ec82610e4b565b600060208284031215610f3d57600080fd5b5035919050565b60008060408385031215610f5757600080fd5b50508035926020909101359150565b60008060408385031215610f7957600080fd5b610f8283610e4b565b9150610f9060208401610e4b565b90509250929050565b600181811c90821680610fad57607f821691505b602082108103610fcd57634e487b7160e01b600052602260045260246000fd5b50919050565b634e487b7160e01b600052601160045260246000fd5b818103818111156103f0576103f0610fd3565b808201808211156103f0576103f0610fd3565b80820281158282048414176103f0576103f0610fd3565b60008261104357634e487b7160e01b600052601260045260246000fd5b50049056fea26469706673582212201676e63981b9525b4d69e627522e4e5614501330148010bfb96e8603e66cc0e264736f6c63430008140033",
  "linkReferences": {},
  "deployedLinkReferences": {}
}