{
  "_format": "hh-sol-artifact-1",
  "contractName": "CourseFactory",
  "sourceName": "contracts/CourseFactory.sol",
  "abi": [
    {
      "inputs": [
        {
          "internalType": "address",
          "name": "_feeCollector",
          "type": "address"
        }
      ],
      "stateMutability": "nonpayable",
      "type": "constructor"
    },
    {
      "inputs": [
        {
          "internalType": "address",
          "name": "sender",
          "type": "address"
        },
        {
          "internalType": "uint256",
          "name": "tokenId",
          "type": "uint256"
        },
        {
          "internalType": "address",
          "name": "owner",
          "type": "address"
        }
      ],
      "name": "ERC721IncorrectOwner",
      "type": "error"
    },
    {
      "inputs": [
        {
          "internalType": "address",
          "name": "operator",
          "type": "address"
        },
        {
          "internalType": "uint256",
          "name": "tokenId",
          "type": "uint256"
        }
      ],
      "name": "ERC721InsufficientApproval",
      "type": "error"
    },
    {
      "inputs": [
        {
          "internalType": "address",
          "name": "approver",
          "type": "address"
        }
      ],
      "name": "ERC721InvalidApprover",
      "type": "error"
    },
    {
      "inputs": [
        {
          "internalType": "address",
          "name": "operator",
          "type": "address"
        }
      ],
      "name": "ERC721InvalidOperator",
      "type": "error"
    },
    {
      "inputs": [
        {
          "internalType": "address",
          "name": "owner",
          "type": "address"
        }
      ],
      "name": "ERC721InvalidOwner",
      "type": "error"
    },
    {
      "inputs": [
        {
          "internalType": "address",
          "name": "receiver",
          "type": "address"
        }
      ],
      "name": "ERC721InvalidReceiver",
      "type": "error"
    },
    {
      "inputs": [
        {
          "internalType": "address",
          "name": "sender",
          "type": "address"
        }
      ],
      "name": "ERC721InvalidSender",
      "type": "error"
    },
    {
      "inputs": [
        {
          "internalType": "uint256",
          "name": "tokenId",
          "type": "uint256"
        }
      ],
      "name": "ERC721NonexistentToken",
      "type": "error"
    },
    {
      "inputs": [
        {
          "internalType": "address",
          "name": "owner",
          "type": "address"
        }
      ],
      "name": "OwnableInvalidOwner",
      "type": "error"
    },
    {
      "inputs": [
        {
          "internalType": "address",
          "name": "account",
          "type": "address"
        }
      ],
      "name": "OwnableUnauthorizedAccount",
      "type": "error"
    },
    {
      "anonymous": false,
      "inputs": [
        {
          "indexed": true,
          "internalType": "address",
          "name": "owner",
          "type": "address"
        },
        {
          "indexed": true,
          "internalType": "address",
          "name": "approved",
          "type": "address"
        },
        {
          "indexed": true,
          "internalType": "uint256",
          "name": "tokenId",
          "type": "uint256"
        }
      ],
      "name": "Approval",
      "type": "event"
    },
    {
      "anonymous": false,
      "inputs": [
        {
          "indexed": true,
          "internalType": "address",
          "name": "owner",
          "type": "address"
        },
        {
          "indexed": true,
          "internalType": "address",
          "name": "operator",
          "type": "address"
        },
        {
          "indexed": false,
          "internalType": "bool",
          "name": "approved",
          "type": "bool"
        }
      ],
      "name": "ApprovalForAll",
      "type": "event"
    },
    {
      "anonymous": false,
      "inputs": [
        {
          "indexed": true,
          "internalType": "uint256",
          "name": "courseId",
          "type": "uint256"
        },
        {
          "indexed": false,
          "internalType": "bool",
          "name": "isActive",
          "type": "bool"
        }
      ],
      "name": "CourseActivationChanged",
      "type": "event"
    },
    {
      "anonymous": false,
      "inputs": [
        {
          "indexed": true,
          "internalType": "uint256",
          "name": "courseId",
          "type": "uint256"
        },
        {
          "indexed": false,
          "internalType": "address",
          "name": "creator",
          "type": "address"
        },
        {
          "indexed": false,
          "internalType": "address",
          "name": "courseTokenAddress",
          "type": "address"
        }
      ],
      "name": "CourseCreated",
      "type": "event"
    },
    {
      "anonymous": false,
      "inputs": [
        {
          "indexed": true,
          "internalType": "uint256",
          "name": "courseId",
          "type": "uint256"
        }
      ],
      "name": "CourseUpdated",
      "type": "event"
    },
    {
      "anonymous": false,
      "inputs": [
        {
          "indexed": true,
          "internalType": "address",
          "name": "previousOwner",
          "type": "address"
        },
        {
          "indexed": true,
          "internalType": "address",
          "name": "newOwner",
          "type": "address"
        }
      ],
      "name": "OwnershipTransferred",
      "type": "event"
    },
    {
      "anonymous": false,
      "inputs": [
        {
          "indexed": true,
          "internalType": "address",
          "name": "from",
          "type": "address"
        },
        {
          "indexed": true,
          "internalType": "address",
          "name": "to",
          "type": "address"
        },
        {
          "indexed": true,
          "internalType": "uint256",
          "name": "tokenId",
          "type": "uint256"
        }
      ],
      "name": "Transfer",
      "type": "event"
    },
    {
      "inputs": [
        {
          "internalType": "address",
          "name": "to",
          "type": "address"
        },
        {
          "internalType": "uint256",
          "name": "tokenId",
          "type": "uint256"
        }
      ],
      "name": "approve",
      "outputs": [],
      "stateMutability": "nonpayable",
      "type": "function"
    },
    {
      "inputs": [
        {
          "internalType": "address",
          "name": "owner",
          "type": "address"
        }
      ],
      "name": "balanceOf",
      "outputs": [
        {
          "internalType": "uint256",
          "name": "",
          "type": "uint256"
        }
      ],
      "stateMutability": "view",
      "type": "function"
    },
    {
      "inputs": [
        {
          "internalType": "uint256",
          "name": "",
          "type": "uint256"
        }
      ],
      "name": "courses",
      "outputs": [
        {
          "internalType": "uint256",
          "name": "id",
          "type": "uint256"
        },
        {
          "internalType": "string",
          "name": "title",
          "type": "string"
        },
        {
          "internalType": "string",
          "name": "description",
          "type": "string"
        },
        {
          "internalType": "uint256",
          "name": "duration",
          "type": "uint256"
        },
        {
          "internalType": "uint256",
          "name": "price",
          "type": "uint256"
        },
        {
          "internalType": "address",
          "name": "creator",
          "type": "address"
        },
        {
          "internalType": "address",
          "name": "courseTokenAddress",
          "type": "address"
        },
        {
          "internalType": "uint256",
          "name": "creationTime",
          "type": "uint256"
        },
        {
          "internalType": "uint256",
          "name": "learnersCount",
          "type": "uint256"
        },
        {
          "internalType": "bool",
          "name": "isActive",
          "type": "bool"
        }
      ],
      "stateMutability": "view",
      "type": "function"
    },
    {
      "inputs": [
        {
          "internalType": "string",
          "name": "title",
          "type": "string"
        },
        {
          "internalType": "string",
          "name": "description",
          "type": "string"
        },
        {
          "internalType": "uint256",
          "name": "duration",
          "type": "uint256"
        },
        {
          "internalType": "string",
          "name": "industry",
          "type": "string"
        },
        {
          "internalType": "uint256",
          "name": "basePrice",
          "type": "uint256"
        }
      ],
      "name": "createCourse",
      "outputs": [
        {
          "internalType": "uint256",
          "name": "",
          "type": "uint256"
        }
      ],
      "stateMutability": "nonpayable",
      "type": "function"
    },
    {
      "inputs": [
        {
          "internalType": "address",
          "name": "",
          "type": "address"
        },
        {
          "internalType": "uint256",
          "name": "",
          "type": "uint256"
        }
      ],
      "name": "creatorCourses",
      "outputs": [
        {
          "internalType": "uint256",
          "name": "",
          "type": "uint256"
        }
      ],
      "stateMutability": "view",
      "type": "function"
    },
    {
      "inputs": [
        {
          "internalType": "address",
          "name": "",
          "type": "address"
        }
      ],
      "name": "creatorReputationMap",
      "outputs": [
        {
          "internalType": "uint256",
          "name": "",
          "type": "uint256"
        }
      ],
      "stateMutability": "view",
      "type": "function"
    },
    {
      "inputs": [],
      "name": "feeCollector",
      "outputs": [
        {
          "internalType": "address",
          "name": "",
          "type": "address"
        }
      ],
      "stateMutability": "view",
      "type": "function"
    },
    {
      "inputs": [
        {
          "internalType": "uint256",
          "name": "tokenId",
          "type": "uint256"
        }
      ],
      "name": "getApproved",
      "outputs": [
        {
          "internalType": "address",
          "name": "",
          "type": "address"
        }
      ],
      "stateMutability": "view",
      "type": "function"
    },
    {
      "inputs": [
        {
          "internalType": "uint256",
          "name": "courseId",
          "type": "uint256"
        }
      ],
      "name": "getCourse",
      "outputs": [
        {
          "components": [
            {
              "internalType": "uint256",
              "name": "id",
              "type": "uint256"
            },
            {
              "internalType": "string",
              "name": "title",
              "type": "string"
            },
            {
              "internalType": "string",
              "name": "description",
              "type": "string"
            },
            {
              "internalType": "uint256",
              "name": "duration",
              "type": "uint256"
            },
            {
              "internalType": "uint256",
              "name": "price",
              "type": "uint256"
            },
            {
              "internalType": "address",
              "name": "creator",
              "type": "address"
            },
            {
              "internalType": "address",
              "name": "courseTokenAddress",
              "type": "address"
            },
            {
              "internalType": "uint256",
              "name": "creationTime",
              "type": "uint256"
            },
            {
              "internalType": "uint256",
              "name": "learnersCount",
              "type": "uint256"
            },
            {
              "internalType": "bool",
              "name": "isActive",
              "type": "bool"
            }
          ],
          "internalType": "struct CourseFactory.Course",
          "name": "",
          "type": "tuple"
        }
      ],
      "stateMutability": "view",
      "type": "function"
    },
    {
      "inputs": [
        {
          "internalType": "address",
          "name": "creator",
          "type": "address"
        }
      ],
      "name": "getCreatorCourses",
      "outputs": [
        {
          "internalType": "uint256[]",
          "name": "",
          "type": "uint256[]"
        }
      ],
      "stateMutability": "view",
      "type": "function"
    },
    {
      "inputs": [
        {
          "internalType": "string",
          "name": "",
          "type": "string"
        }
      ],
      "name": "industryCoefficientMap",
      "outputs": [
        {
          "internalType": "uint256",
          "name": "",
          "type": "uint256"
        }
      ],
      "stateMutability": "view",
      "type": "function"
    },
    {
      "inputs": [
        {
          "internalType": "address",
          "name": "owner",
          "type": "address"
        },
        {
          "internalType": "address",
          "name": "operator",
          "type": "address"
        }
      ],
      "name": "isApprovedForAll",
      "outputs": [
        {
          "internalType": "bool",
          "name": "",
          "type": "bool"
        }
      ],
      "stateMutability": "view",
      "type": "function"
    },
    {
      "inputs": [],
      "name": "name",
      "outputs": [
        {
          "internalType": "string",
          "name": "",
          "type": "string"
        }
      ],
      "stateMutability": "view",
      "type": "function"
    },
    {
      "inputs": [],
      "name": "owner",
      "outputs": [
        {
          "internalType": "address",
          "name": "",
          "type": "address"
        }
      ],
      "stateMutability": "view",
      "type": "function"
    },
    {
      "inputs": [
        {
          "internalType": "uint256",
          "name": "tokenId",
          "type": "uint256"
        }
      ],
      "name": "ownerOf",
      "outputs": [
        {
          "internalType": "address",
          "name": "",
          "type": "address"
        }
      ],
      "stateMutability": "view",
      "type": "function"
    },
    {
      "inputs": [],
      "name": "platformFeeRate",
      "outputs": [
        {
          "internalType": "uint256",
          "name": "",
          "type": "uint256"
        }
      ],
      "stateMutability": "view",
      "type": "function"
    },
    {
      "inputs": [],
      "name": "renounceOwnership",
      "outputs": [],
      "stateMutability": "nonpayable",
      "type": "function"
    },
    {
      "inputs": [
        {
          "internalType": "address",
          "name": "from",
          "type": "address"
        },
        {
          "internalType": "address",
          "name": "to",
          "type": "address"
        },
        {
          "internalType": "uint256",
          "name": "tokenId",
          "type": "uint256"
        }
      ],
      "name": "safeTransferFrom",
      "outputs": [],
      "stateMutability": "nonpayable",
      "type": "function"
    },
    {
      "inputs": [
        {
          "internalType": "address",
          "name": "from",
          "type": "address"
        },
        {
          "internalType": "address",
          "name": "to",
          "type": "address"
        },
        {
          "internalType": "uint256",
          "name": "tokenId",
          "type": "uint256"
        },
        {
          "internalType": "bytes",
          "name": "data",
          "type": "bytes"
        }
      ],
      "name": "safeTransferFrom",
      "outputs": [],
      "stateMutability": "nonpayable",
      "type": "function"
    },
    {
      "inputs": [
        {
          "internalType": "address",
          "name": "operator",
          "type": "address"
        },
        {
          "internalType": "bool",
          "name": "approved",
          "type": "bool"
        }
      ],
      "name": "setApprovalForAll",
      "outputs": [],
      "stateMutability": "nonpayable",
      "type": "function"
    },
    {
      "inputs": [
        {
          "internalType": "string",
          "name": "baseURI",
          "type": "string"
        }
      ],
      "name": "setBaseURI",
      "outputs": [],
      "stateMutability": "nonpayable",
      "type": "function"
    },
    {
      "inputs": [
        {
          "internalType": "address",
          "name": "creator",
          "type": "address"
        },
        {
          "internalType": "uint256",
          "name": "reputation",
          "type": "uint256"
        }
      ],
      "name": "setCreatorReputation",
      "outputs": [],
      "stateMutability": "nonpayable",
      "type": "function"
    },
    {
      "inputs": [
        {
          "internalType": "string",
          "name": "industry",
          "type": "string"
        },
        {
          "internalType": "uint256",
          "name": "coefficient",
          "type": "uint256"
        }
      ],
      "name": "setIndustryCoefficient",
      "outputs": [],
      "stateMutability": "nonpayable",
      "type": "function"
    },
    {
      "inputs": [
        {
          "internalType": "uint256",
          "name": "newRate",
          "type": "uint256"
        }
      ],
      "name": "setPlatformFeeRate",
      "outputs": [],
      "stateMutability": "nonpayable",
      "type": "function"
    },
    {
      "inputs": [
        {
          "internalType": "bytes4",
          "name": "interfaceId",
          "type": "bytes4"
        }
      ],
      "name": "supportsInterface",
      "outputs": [
        {
          "internalType": "bool",
          "name": "",
          "type": "bool"
        }
      ],
      "stateMutability": "view",
      "type": "function"
    },
    {
      "inputs": [],
      "name": "symbol",
      "outputs": [
        {
          "internalType": "string",
          "name": "",
          "type": "string"
        }
      ],
      "stateMutability": "view",
      "type": "function"
    },
    {
      "inputs": [
        {
          "internalType": "uint256",
          "name": "courseId",
          "type": "uint256"
        }
      ],
      "name": "toggleCourseActivation",
      "outputs": [],
      "stateMutability": "nonpayable",
      "type": "function"
    },
    {
      "inputs": [
        {
          "internalType": "uint256",
          "name": "tokenId",
          "type": "uint256"
        }
      ],
      "name": "tokenURI",
      "outputs": [
        {
          "internalType": "string",
          "name": "",
          "type": "string"
        }
      ],
      "stateMutability": "view",
      "type": "function"
    },
    {
      "inputs": [
        {
          "internalType": "address",
          "name": "from",
          "type": "address"
        },
        {
          "internalType": "address",
          "name": "to",
          "type": "address"
        },
        {
          "internalType": "uint256",
          "name": "tokenId",
          "type": "uint256"
        }
      ],
      "name": "transferFrom",
      "outputs": [],
      "stateMutability": "nonpayable",
      "type": "function"
    },
    {
      "inputs": [
        {
          "internalType": "address",
          "name": "newOwner",
          "type": "address"
        }
      ],
      "name": "transferOwnership",
      "outputs": [],
      "stateMutability": "nonpayable",
      "type": "function"
    },
    {
      "inputs": [
        {
          "internalType": "uint256",
          "name": "courseId",
          "type": "uint256"
        },
        {
          "internalType": "string",
          "name": "title",
          "type": "string"
        },
        {
          "internalType": "string",
          "name": "description",
          "type": "string"
        }
      ],
      "name": "updateCourse",
      "outputs": [],
      "stateMutability": "nonpayable",
      "type": "function"
    }
  ],
  "bytecode": "0x60806040526064600b553480156200001657600080fd5b506040516200406f3803806200406f833981016040819052620000399162000260565b336040518060400160405280601681526020017f45445520436f75727365204365727469666963617465000000000000000000008152506040518060400160405280600781526020016611511550d1549560ca1b8152508160009081620000a1919062000337565b506001620000b0828262000337565b5050506001600160a01b038116620000e357604051631e4fbdf760e01b8152600060048201526024015b60405180910390fd5b620000ee816200020e565b506001600160a01b038116620001475760405162461bcd60e51b815260206004820152601d60248201527f496e76616c69642066656520636f6c6c6563746f7220616464726573730000006044820152606401620000da565b600c80546001600160a01b0319166001600160a01b03929092169190911790556040805169746563686e6f6c6f677960b01b8152600d600a8201819052825191829003602a0182206078905567627573696e65737360c01b8252600882018190528251918290036028018220606e9055636172747360e01b8252600482018190528251918290036024018220605a905566736369656e636560c81b82526007820152815190819003602701902060739055336000908152600e602052206064905562000403565b600680546001600160a01b038381166001600160a01b0319831681179093556040519116919082907f8be0079c531659141344cd1fd0a4f28419497f9722a3daafe3b4186f6b6457e090600090a35050565b6000602082840312156200027357600080fd5b81516001600160a01b03811681146200028b57600080fd5b9392505050565b634e487b7160e01b600052604160045260246000fd5b600181811c90821680620002bd57607f821691505b602082108103620002de57634e487b7160e01b600052602260045260246000fd5b50919050565b601f8211156200033257600081815260208120601f850160051c810160208610156200030d5750805b601f850160051c820191505b818110156200032e5782815560010162000319565b5050505b505050565b81516001600160401b0381111562000353576200035362000292565b6200036b81620003648454620002a8565b84620002e4565b602080601f831160018114620003a357600084156200038a5750858301515b600019600386901b1c1916600185901b1785556200032e565b600085815260208120601f198616915b82811015620003d457888601518255948401946001909101908401620003b3565b5085821015620003f35787850151600019600388901b60f8161c191681555b5050505050600190811b01905550565b613c5c80620004136000396000f3fe60806040523480156200001157600080fd5b50600436106200020d5760003560e01c80638da5cb5b1162000125578063c87b56dd11620000af578063e8e1136c116200007a578063e8e1136c14620004eb578063e985e9c5146200050e578063eeca08f01462000525578063f2fde38b146200052f57600080fd5b8063c87b56dd146200048f578063d51c5ec614620004a6578063e347495514620004bd578063e5ef24ea14620004d457600080fd5b806396f979d211620000f057806396f979d2146200041e578063a22cb465146200044d578063b88d4fde1462000464578063c415b95c146200047b57600080fd5b80638da5cb5b14620003d4578063927fef2e14620003e657806394f9d84c14620003fd57806395d89b41146200041457600080fd5b80631dc46c4d11620001a757806355f804b3116200017257806355f804b314620003855780636352211e146200039c57806370a0823114620003b3578063715018a614620003ca57600080fd5b80631dc46c4d146200032957806323b872dd14620003405780632450e54c146200035757806342842e0e146200036e57600080fd5b8063081812fc11620001e8578063081812fc1462000294578063095ea7b314620002c45780630b91e28d14620002dd57806312112caf146200030357600080fd5b806301ffc9a71462000212578063057f65a4146200023e57806306fdde03146200027b575b600080fd5b620002296200022336600462001c27565b62000546565b60405190151581526020015b60405180910390f35b6200026c6200024f36600462001cfd565b8051602081830181018051600d8252928201919093012091525481565b60405190815260200162000235565b620002856200059a565b60405162000235919062001d8a565b620002ab620002a536600462001d9f565b62000634565b6040516001600160a01b03909116815260200162000235565b620002db620002d536600462001dd6565b62000660565b005b620002f4620002ee36600462001d9f565b62000671565b60405162000235919062001e03565b6200031a6200031436600462001ec5565b620008ca565b60405162000235919062001ee3565b6200026c6200033a36600462001dd6565b62000938565b620002db6200035136600462001f29565b6200096a565b620002db6200036836600462001dd6565b620009fb565b620002db6200037f36600462001f29565b62000a77565b620002db6200039636600462001cfd565b62000a99565b620002ab620003ad36600462001d9f565b62000ab1565b6200026c620003c436600462001ec5565b62000abe565b620002db62000b08565b6006546001600160a01b0316620002ab565b620002db620003f736600462001d9f565b62000b20565b620002db6200040e36600462001f6a565b62000b72565b6200028562000c61565b620004356200042f36600462001d9f565b62000c72565b604051620002359a9998979695949392919062001fde565b620002db6200045e36600462002059565b62000df1565b620002db6200047536600462002099565b62000dfe565b600c54620002ab906001600160a01b031681565b62000285620004a036600462001d9f565b62000e19565b620002db620004b736600462001d9f565b62000e8b565b620002db620004ce3660046200211e565b62000f79565b6200026c620004e536600462002167565b62001001565b6200026c620004fc36600462001ec5565b600e6020526000908152604090205481565b620002296200051f3660046200220b565b620013d6565b6200026c600b5481565b620002db6200054036600462001ec5565b62001404565b60006001600160e01b031982166380ac58cd60e01b14806200057857506001600160e01b03198216635b5e139f60e01b145b806200059457506301ffc9a760e01b6001600160e01b03198316145b92915050565b606060008054620005ab9062002243565b80601f0160208091040260200160405190810160405280929190818152602001828054620005d99062002243565b80156200062a5780601f10620005fe576101008083540402835291602001916200062a565b820191906000526020600020905b8154815290600101906020018083116200060c57829003601f168201915b5050505050905090565b6000620006418262001448565b506000828152600460205260409020546001600160a01b031662000594565b6200066d82823362001483565b5050565b620006dc604051806101400160405280600081526020016060815260200160608152602001600081526020016000815260200160006001600160a01b0316815260200160006001600160a01b0316815260200160008152602001600081526020016000151581525090565b620006e78262001492565b6200070f5760405162461bcd60e51b815260040162000706906200227f565b60405180910390fd5b6008600083815260200190815260200160002060405180610140016040529081600082015481526020016001820180546200074a9062002243565b80601f0160208091040260200160405190810160405280929190818152602001828054620007789062002243565b8015620007c95780601f106200079d57610100808354040283529160200191620007c9565b820191906000526020600020905b815481529060010190602001808311620007ab57829003601f168201915b50505050508152602001600282018054620007e49062002243565b80601f0160208091040260200160405190810160405280929190818152602001828054620008129062002243565b8015620008635780601f10620008375761010080835404028352916020019162000863565b820191906000526020600020905b8154815290600101906020018083116200084557829003601f168201915b5050509183525050600382015460208201526004820154604082015260058201546001600160a01b0390811660608301526006830154166080820152600782015460a0820152600882015460c082015260099091015460ff16151560e09091015292915050565b6001600160a01b0381166000908152600960209081526040918290208054835181840281018401909452808452606093928301828280156200092c57602002820191906000526020600020905b81548152602001906001019080831162000917575b50505050509050919050565b600960205281600052604060002081815481106200095557600080fd5b90600052602060002001600091509150505481565b6001600160a01b0382166200099657604051633250574960e11b81526000600482015260240162000706565b6000620009a5838333620014cf565b9050836001600160a01b0316816001600160a01b031614620009f5576040516364283d7b60e01b81526001600160a01b038086166004830152602482018490528216604482015260640162000706565b50505050565b62000a05620015cf565b60008111801562000a18575061012c8111155b62000a5b5760405162461bcd60e51b815260206004820152601260248201527124b73b30b634b2103932b83aba30ba34b7b760711b604482015260640162000706565b6001600160a01b039091166000908152600e6020526040902055565b62000a948383836040518060200160405280600081525062000dfe565b505050565b62000aa3620015cf565b600a6200066d828262002300565b6000620005948262001448565b60006001600160a01b03821662000aec576040516322718ad960e21b81526000600482015260240162000706565b506001600160a01b031660009081526003602052604090205490565b62000b12620015cf565b62000b1e6000620015fe565b565b62000b2a620015cf565b61012c81111562000b6d5760405162461bcd60e51b815260206004820152600c60248201526b08ccaca40e8dede40d0d2ced60a31b604482015260640162000706565b600b55565b62000b7d8362001492565b62000b9c5760405162461bcd60e51b815260040162000706906200227f565b6000838152600860205260409020600501546001600160a01b0316331462000c005760405162461bcd60e51b81526020600482015260166024820152752737ba103a34329031b7bab939b29031b932b0ba37b960511b604482015260640162000706565b60008381526008602052604090206001810162000c1e848262002300565b506002810162000c2f838262002300565b5060405184907f1096076b97c67b3201b3d0093b557e24a9d8389db627dc24034f7328bd3f508090600090a250505050565b606060018054620005ab9062002243565b6008602052600090815260409020805460018201805491929162000c969062002243565b80601f016020809104026020016040519081016040528092919081815260200182805462000cc49062002243565b801562000d155780601f1062000ce95761010080835404028352916020019162000d15565b820191906000526020600020905b81548152906001019060200180831162000cf757829003601f168201915b50505050509080600201805462000d2c9062002243565b80601f016020809104026020016040519081016040528092919081815260200182805462000d5a9062002243565b801562000dab5780601f1062000d7f5761010080835404028352916020019162000dab565b820191906000526020600020905b81548152906001019060200180831162000d8d57829003601f168201915b505050600384015460048501546005860154600687015460078801546008890154600990990154979894979396506001600160a01b039283169550911692909160ff168a565b6200066d33838362001650565b62000e0b8484846200096a565b620009f584848484620016f1565b606062000e268262001448565b50600062000e3362001827565b9050600081511162000e55576040518060200160405280600081525062000e84565b8062000e618462001838565b60405160200162000e74929190620023cd565b6040516020818303038152906040525b9392505050565b62000e968162001492565b62000eb55760405162461bcd60e51b815260040162000706906200227f565b6000818152600860205260409020600501546001600160a01b0316331462000f195760405162461bcd60e51b81526020600482015260166024820152752737ba103a34329031b7bab939b29031b932b0ba37b960511b604482015260640162000706565b600081815260086020908152604091829020600901805460ff8082161560ff199092168217909255925192161515825282917f6ba49c5da39bf8cccda88a0ab633171efac7515612e35adebcb88dee06bff3a1910160405180910390a250565b62000f83620015cf565b60008111801562000f96575061012c8111155b62000fda5760405162461bcd60e51b8152602060048201526013602482015272125b9d985b1a590818dbd959999a58da595b9d606a1b604482015260640162000706565b80600d8360405162000fed919062002400565b908152604051908190036020019020555050565b6000808651116200104d5760405162461bcd60e51b81526020600482015260156024820152745469746c652063616e6e6f7420626520656d70747960581b604482015260640162000706565b600084116200109f5760405162461bcd60e51b815260206004820152601f60248201527f4475726174696f6e206d7573742062652067726561746572207468616e203000604482015260640162000706565b60008211620010fb5760405162461bcd60e51b815260206004820152602160248201527f42617365207072696365206d7573742062652067726561746572207468616e206044820152600360fc1b606482015260840162000706565b6000600d846040516200110f919062002400565b9081526020016040518091039020549050806000036200112d575060645b336000908152600e6020526040812054908190036200114a575060645b6000620f424082846200115e8a8962002434565b6200116a919062002434565b62001176919062002434565b6200118291906200244e565b905060006200119588620f424062002434565b905060008a604051602001620011ac919062002471565b60408051601f19818403018152908290526007546110d560f21b60208401526022830152906042016040516020818303038152906040528333604051620011f39062001c02565b6200120294939291906200249d565b604051809103906000f0801580156200121f573d6000803e3d6000fd5b509050600160076000828254620012379190620024e8565b9091555050600754604080516101408101825282815260208082018f81528284018f9052606083018e9052608083018890523360a08401526001600160a01b03861660c08401524260e0840152600061010084018190526001610120850181905286825260089093529390932082518155925191929190820190620012bd908262002300565b5060408201516002820190620012d4908262002300565b50606082015160038201556080820151600482015560a08201516005820180546001600160a01b039283166001600160a01b03199182161790915560c084015160068401805491909316911617905560e082015160078201556101008201516008820155610120909101516009918201805491151560ff199092169190911790553360008181526020928352604081208054600181018255908252929020909101829055620013849082620018d2565b604080513381526001600160a01b038416602082015282917f751cc5a82b98828a13382a40d5226dfcc9ba4ace09c8dbf2f1efbd93b089f31a910160405180910390a29b9a5050505050505050505050565b6001600160a01b03918216600090815260056020908152604080832093909416825291909152205460ff1690565b6200140e620015cf565b6001600160a01b0381166200143a57604051631e4fbdf760e01b81526000600482015260240162000706565b6200144581620015fe565b50565b6000818152600260205260408120546001600160a01b0316806200059457604051637e27328960e01b81526004810184905260240162000706565b62000a9483838360016200193d565b60008082118015620014a657506007548211155b8015620005945750506000908152600860205260409020600501546001600160a01b0316151590565b6000828152600260205260408120546001600160a01b0390811690831615620014ff57620014ff81848662001a4e565b6001600160a01b0381161562001540576200151f6000856000806200193d565b6001600160a01b038116600090815260036020526040902080546000190190555b6001600160a01b0385161562001570576001600160a01b0385166000908152600360205260409020805460010190555b60008481526002602052604080822080546001600160a01b0319166001600160a01b0389811691821790925591518793918516917fddf252ad1be2c89b69c2b068fc378daa952ba7f163c4a11628f55a4df523b3ef91a4949350505050565b6006546001600160a01b0316331462000b1e5760405163118cdaa760e01b815233600482015260240162000706565b600680546001600160a01b038381166001600160a01b0319831681179093556040519116919082907f8be0079c531659141344cd1fd0a4f28419497f9722a3daafe3b4186f6b6457e090600090a35050565b6001600160a01b0382166200168457604051630b61174360e31b81526001600160a01b038316600482015260240162000706565b6001600160a01b03838116600081815260056020908152604080832094871680845294825291829020805460ff191686151590811790915591519182527f17307eab39ab6107e8899845ad3d59bd9653f200f220920489ca2b5937696c31910160405180910390a3505050565b6001600160a01b0383163b15620009f557604051630a85bd0160e11b81526001600160a01b0384169063150b7a029062001736903390889087908790600401620024fe565b6020604051808303816000875af192505050801562001774575060408051601f3d908101601f1916820190925262001771918101906200253d565b60015b620017e2573d808015620017a5576040519150601f19603f3d011682016040523d82523d6000602084013e620017aa565b606091505b508051600003620017da57604051633250574960e11b81526001600160a01b038516600482015260240162000706565b805181602001fd5b6001600160e01b03198116630a85bd0160e11b146200182057604051633250574960e11b81526001600160a01b038516600482015260240162000706565b5050505050565b6060600a8054620005ab9062002243565b60606000620018478362001ab8565b600101905060008167ffffffffffffffff8111156200186a576200186a62001c47565b6040519080825280601f01601f19166020018201604052801562001895576020820181803683370190505b5090508181016020015b600019016f181899199a1a9b1b9c1cb0b131b232b360811b600a86061a8153600a85049450846200189f57509392505050565b6001600160a01b038216620018fe57604051633250574960e11b81526000600482015260240162000706565b60006200190e83836000620014cf565b90506001600160a01b0381161562000a94576040516339e3563760e11b81526000600482015260240162000706565b80806200195257506001600160a01b03821615155b1562001a1e576000620019658462001448565b90506001600160a01b03831615801590620019925750826001600160a01b0316816001600160a01b031614155b8015620019a85750620019a68184620013d6565b155b15620019d35760405163a9fbf51f60e01b81526001600160a01b038416600482015260240162000706565b811562001a1c5783856001600160a01b0316826001600160a01b03167f8c5be1e5ebec7d5bd14f71427d1e84f3dd0314c0f7b2291e5b200ac8c7c3b92560405160405180910390a45b505b5050600090815260046020526040902080546001600160a01b0319166001600160a01b0392909216919091179055565b62001a5b83838362001b97565b62000a94576001600160a01b03831662001a8c57604051637e27328960e01b81526004810182905260240162000706565b60405163177e802f60e01b81526001600160a01b03831660048201526024810182905260440162000706565b60008072184f03e93ff9f4daa797ed6e38ed64bf6a1f0160401b831062001af85772184f03e93ff9f4daa797ed6e38ed64bf6a1f0160401b830492506040015b6d04ee2d6d415b85acef8100000000831062001b25576d04ee2d6d415b85acef8100000000830492506020015b662386f26fc10000831062001b4457662386f26fc10000830492506010015b6305f5e100831062001b5d576305f5e100830492506008015b612710831062001b7257612710830492506004015b6064831062001b85576064830492506002015b600a8310620005945760010192915050565b60006001600160a01b0383161580159062001bfa5750826001600160a01b0316846001600160a01b0316148062001bd5575062001bd58484620013d6565b8062001bfa57506000828152600460205260409020546001600160a01b038481169116145b949350505050565b6116c9806200255e83390190565b6001600160e01b0319811681146200144557600080fd5b60006020828403121562001c3a57600080fd5b813562000e848162001c10565b634e487b7160e01b600052604160045260246000fd5b600067ffffffffffffffff8084111562001c7b5762001c7b62001c47565b604051601f8501601f19908116603f0116810190828211818310171562001ca65762001ca662001c47565b8160405280935085815286868601111562001cc057600080fd5b858560208301376000602087830101525050509392505050565b600082601f83011262001cec57600080fd5b62000e848383356020850162001c5d565b60006020828403121562001d1057600080fd5b813567ffffffffffffffff81111562001d2857600080fd5b62001bfa8482850162001cda565b60005b8381101562001d5357818101518382015260200162001d39565b50506000910152565b6000815180845262001d7681602086016020860162001d36565b601f01601f19169290920160200192915050565b60208152600062000e84602083018462001d5c565b60006020828403121562001db257600080fd5b5035919050565b80356001600160a01b038116811462001dd157600080fd5b919050565b6000806040838503121562001dea57600080fd5b62001df58362001db9565b946020939093013593505050565b60208152815160208201526000602083015161014080604085015262001e2e61016085018362001d5c565b91506040850151601f1985840301606086015262001e4d838262001d5c565b92505060608501516080850152608085015160a085015260a085015162001e7f60c08601826001600160a01b03169052565b5060c08501516001600160a01b03811660e08601525060e08501516101008581019190915285015161012080860191909152850151801515828601525090949350505050565b60006020828403121562001ed857600080fd5b62000e848262001db9565b6020808252825182820181905260009190848201906040850190845b8181101562001f1d5783518352928401929184019160010162001eff565b50909695505050505050565b60008060006060848603121562001f3f57600080fd5b62001f4a8462001db9565b925062001f5a6020850162001db9565b9150604084013590509250925092565b60008060006060848603121562001f8057600080fd5b83359250602084013567ffffffffffffffff8082111562001fa057600080fd5b62001fae8783880162001cda565b9350604086013591508082111562001fc557600080fd5b5062001fd48682870162001cda565b9150509250925092565b60006101408c835280602084015262001ffa8184018d62001d5c565b9050828103604084015262002010818c62001d5c565b606084019a909a52505060808101969096526001600160a01b0394851660a08701529290931660c085015260e08401526101008301919091521515610120909101529392505050565b600080604083850312156200206d57600080fd5b620020788362001db9565b9150602083013580151581146200208e57600080fd5b809150509250929050565b60008060008060808587031215620020b057600080fd5b620020bb8562001db9565b9350620020cb6020860162001db9565b925060408501359150606085013567ffffffffffffffff811115620020ef57600080fd5b8501601f810187136200210157600080fd5b620021128782356020840162001c5d565b91505092959194509250565b600080604083850312156200213257600080fd5b823567ffffffffffffffff8111156200214a57600080fd5b620021588582860162001cda565b95602094909401359450505050565b600080600080600060a086880312156200218057600080fd5b853567ffffffffffffffff808211156200219957600080fd5b620021a789838a0162001cda565b96506020880135915080821115620021be57600080fd5b620021cc89838a0162001cda565b9550604088013594506060880135915080821115620021ea57600080fd5b50620021f98882890162001cda565b95989497509295608001359392505050565b600080604083850312156200221f57600080fd5b6200222a8362001db9565b91506200223a6020840162001db9565b90509250929050565b600181811c908216806200225857607f821691505b6020821081036200227957634e487b7160e01b600052602260045260246000fd5b50919050565b60208082526015908201527410dbdd5c9cd948191bd95cc81b9bdd08195e1a5cdd605a1b604082015260600190565b601f82111562000a9457600081815260208120601f850160051c81016020861015620022d75750805b601f850160051c820191505b81811015620022f857828155600101620022e3565b505050505050565b815167ffffffffffffffff8111156200231d576200231d62001c47565b62002335816200232e845462002243565b84620022ae565b602080601f8311600181146200236d5760008415620023545750858301515b600019600386901b1c1916600185901b178555620022f8565b600085815260208120601f198616915b828110156200239e578886015182559484019460019091019084016200237d565b5085821015620023bd5787850151600019600388901b60f8161c191681555b5050505050600190811b01905550565b60008351620023e181846020880162001d36565b835190830190620023f781836020880162001d36565b01949350505050565b600082516200241481846020870162001d36565b9190910192915050565b634e487b7160e01b600052601160045260246000fd5b80820281158282048414176200059457620005946200241e565b6000826200246c57634e487b7160e01b600052601260045260246000fd5b500490565b600082516200248581846020870162001d36565b65102a37b5b2b760d11b920191825250600601919050565b608081526000620024b2608083018762001d5c565b8281036020840152620024c6818762001d5c565b604084019590955250506001600160a01b039190911660609091015292915050565b808201808211156200059457620005946200241e565b6001600160a01b0385811682528416602082015260408101839052608060608201819052600090620025339083018462001d5c565b9695505050505050565b6000602082840312156200255057600080fd5b815162000e848162001c1056fe6080604052601460085560326009556032600a553480156200002057600080fd5b50604051620016c9380380620016c98339810160408190526200004391620003dc565b808484600362000054838262000500565b50600462000063828262000500565b5050506001600160a01b0381166200009657604051631e4fbdf760e01b8152600060048201526024015b60405180910390fd5b620000a18162000154565b50600680546001600160a01b0383166001600160a01b0319918216811790925560078054821683179055600b805490911682179055620000fc906064620000ea603c86620005e2565b620000f6919062000602565b620001a6565b62000110816064620000ea601486620005e2565b60075462000130906001600160a01b03166064620000ea601486620005e2565b6001600160a01b03166000908152600c60205260409020429055506200063b915050565b600580546001600160a01b038381166001600160a01b0319831681179093556040519116919082907f8be0079c531659141344cd1fd0a4f28419497f9722a3daafe3b4186f6b6457e090600090a35050565b6001600160a01b038216620001d25760405163ec442f0560e01b8152600060048201526024016200008d565b620001e060008383620001e4565b5050565b6001600160a01b0383166200021357806002600082825462000207919062000625565b90915550620002879050565b6001600160a01b03831660009081526020819052604090205481811015620002685760405163391434e360e21b81526001600160a01b038516600482015260248101829052604481018390526064016200008d565b6001600160a01b03841660009081526020819052604090209082900390555b6001600160a01b038216620002a557600280548290039055620002c4565b6001600160a01b03821660009081526020819052604090208054820190555b816001600160a01b0316836001600160a01b03167fddf252ad1be2c89b69c2b068fc378daa952ba7f163c4a11628f55a4df523b3ef836040516200030a91815260200190565b60405180910390a3505050565b634e487b7160e01b600052604160045260246000fd5b600082601f8301126200033f57600080fd5b81516001600160401b03808211156200035c576200035c62000317565b604051601f8301601f19908116603f0116810190828211818310171562000387576200038762000317565b81604052838152602092508683858801011115620003a457600080fd5b600091505b83821015620003c85785820183015181830184015290820190620003a9565b600093810190920192909252949350505050565b60008060008060808587031215620003f357600080fd5b84516001600160401b03808211156200040b57600080fd5b62000419888389016200032d565b955060208701519150808211156200043057600080fd5b506200043f878288016200032d565b60408701516060880151919550935090506001600160a01b03811681146200046657600080fd5b939692955090935050565b600181811c908216806200048657607f821691505b602082108103620004a757634e487b7160e01b600052602260045260246000fd5b50919050565b601f821115620004fb57600081815260208120601f850160051c81016020861015620004d65750805b601f850160051c820191505b81811015620004f757828155600101620004e2565b5050505b505050565b81516001600160401b038111156200051c576200051c62000317565b62000534816200052d845462000471565b84620004ad565b602080601f8311600181146200056c5760008415620005535750858301515b600019600386901b1c1916600185901b178555620004f7565b600085815260208120601f198616915b828110156200059d578886015182559484019460019091019084016200057c565b5085821015620005bc5787850151600019600388901b60f8161c191681555b5050505050600190811b01905550565b634e487b7160e01b600052601160045260246000fd5b8082028115828204841417620005fc57620005fc620005cc565b92915050565b6000826200062057634e487b7160e01b600052601260045260246000fd5b500490565b80820180821115620005fc57620005fc620005cc565b61107e806200064b6000396000f3fe608060405234801561001057600080fd5b506004361061014d5760003560e01c806395d89b41116100c3578063bbb2dfa51161007c578063bbb2dfa5146102a5578063c3fdfbb4146102b8578063cbcf8cae146102d8578063d25b17b6146102eb578063dd62ed3e146102fe578063f2fde38b1461033757600080fd5b806395d89b41146102525780639f15e6781461025a578063a031cf2e14610263578063a1d609001461026c578063a9059cbb1461027f578063aa95e3591461029257600080fd5b8063363bf96411610115578063363bf964146101c757806340e468c9146101dc57806370a0823114610207578063715018a6146102305780638da5cb5b146102385780638ed0524b1461024957600080fd5b806306fdde0314610152578063095ea7b31461017057806318160ddd1461019357806323b872dd146101a5578063313ce567146101b8575b600080fd5b61015a61034a565b6040516101679190610dfd565b60405180910390f35b61018361017e366004610e67565b6103dc565b6040519015158152602001610167565b6002545b604051908152602001610167565b6101836101b3366004610e91565b6103f6565b60405160128152602001610167565b6101da6101d5366004610ecd565b610418565b005b600b546101ef906001600160a01b031681565b6040516001600160a01b039091168152602001610167565b610197610215366004610f10565b6001600160a01b031660009081526020819052604090205490565b6101da610572565b6005546001600160a01b03166101ef565b61019760085481565b61015a610586565b610197600a5481565b61019760095481565b61019761027a366004610f10565b610595565b61018361028d366004610e67565b6105df565b6007546101ef906001600160a01b031681565b6101da6102b3366004610f2b565b6105f3565b6101976102c6366004610f10565b600c6020526000908152604090205481565b6101da6102e6366004610f44565b610645565b6006546101ef906001600160a01b031681565b61019761030c366004610f66565b6001600160a01b03918216600090815260016020908152604080832093909416825291909152205490565b6101da610345366004610f10565b6106b1565b60606003805461035990610f99565b80601f016020809104026020016040519081016040528092919081815260200182805461038590610f99565b80156103d25780601f106103a7576101008083540402835291602001916103d2565b820191906000526020600020905b8154815290600101906020018083116103b557829003601f168201915b5050505050905090565b6000336103ea8185856106ef565b60019150505b92915050565b600033610404858285610701565b61040f85858561077f565b95945050505050565b610420610ae6565b6001600160a01b03831661047b5760405162461bcd60e51b815260206004820152601e60248201527f496e76616c6964206c697175696469747920706f6f6c2061646472657373000060448201526064015b60405180910390fd5b6001600160a01b0382166104dd5760405162461bcd60e51b8152602060048201526024808201527f496e76616c696420636f6d6d756e69747920696e63656e7469766573206164646044820152637265737360e01b6064820152608401610472565b6001600160a01b0381166105335760405162461bcd60e51b815260206004820181905260248201527f496e76616c6964207363686f6c61727368697020706f6f6c20616464726573736044820152606401610472565b600680546001600160a01b039485166001600160a01b0319918216179091556007805493851693821693909317909255600b8054919093169116179055565b61057a610ae6565b6105846000610b13565b565b60606004805461035990610f99565b6001600160a01b0381166000908152600c602052604081205481036105bc57506000919050565b6001600160a01b0382166000908152600c60205260409020546103f09042610fe9565b60006105ec33848461077f565b9392505050565b6105fb610ae6565b60328111156106405760405162461bcd60e51b81526020600482015260116024820152700a8c2f040e4c2e8ca40e8dede40d0d2ced607b1b6044820152606401610472565b600855565b61064d610ae6565b6106578183610ffc565b6064146106a65760405162461bcd60e51b815260206004820152601b60248201527f50657263656e7461676573206d7573742073756d20746f2031303000000000006044820152606401610472565b600991909155600a55565b6106b9610ae6565b6001600160a01b0381166106e357604051631e4fbdf760e01b815260006004820152602401610472565b6106ec81610b13565b50565b6106fc8383836001610b65565b505050565b6001600160a01b038381166000908152600160209081526040808320938616835292905220546000198114610779578181101561076a57604051637dc7a0d960e11b81526001600160a01b03841660048201526024810182905260448101839052606401610472565b61077984848484036000610b65565b50505050565b60006001600160a01b0384166107d75760405162461bcd60e51b815260206004820152601a60248201527f5472616e736665722066726f6d207a65726f20616464726573730000000000006044820152606401610472565b6001600160a01b03831661082d5760405162461bcd60e51b815260206004820152601860248201527f5472616e7366657220746f207a65726f206164647265737300000000000000006044820152606401610472565b60006108416005546001600160a01b031690565b6001600160a01b0316856001600160a01b0316148061086d57506005546001600160a01b038581169116145b8061088557506006546001600160a01b038681169116145b8061089d57506006546001600160a01b038581169116145b806108b557506007546001600160a01b038681169116145b806108cd57506007546001600160a01b038581169116145b806108e55750600b546001600160a01b038681169116145b6008549091508115801561091057506001600160a01b0386166000908152600c602052604090205415155b15610986576001600160a01b0386166000908152600c60205260408120546109389042610fe9565b905062093a8081111561095f57606461095283605061100f565b61095c9190611026565b91505b62278d0081111561098457606461097783603c61100f565b6109819190611026565b91505b505b6000826109a7576103e861099a838761100f565b6109a49190611026565b90505b8015610ab35760006064600954836109bf919061100f565b6109c99190611026565b905060006109d78284610fe9565b90506109e4893085610c3a565b6109f889896109f3868b610fe9565b610c3a565b8115610a0857610a083083610c99565b8015610a2657600b54610a269030906001600160a01b031683610c3a565b876001600160a01b0316896001600160a01b03167f5d37fd68fe66745a199f8c603e00ae02183f4aabb8ec0089589b0b40c4ead5e185604051610a6b91815260200190565b60405180910390a360408051838152602081018390527ff13a097c86c35dc1a2adcff5f61fd6fcff9e7f01c572f413c7b48e48cf390cd4910160405180910390a15050610abe565b610abe878787610c3a565b5050506001600160a01b0383166000908152600c602052604090204290555060019392505050565b6005546001600160a01b031633146105845760405163118cdaa760e01b8152336004820152602401610472565b600580546001600160a01b038381166001600160a01b0319831681179093556040519116919082907f8be0079c531659141344cd1fd0a4f28419497f9722a3daafe3b4186f6b6457e090600090a35050565b6001600160a01b038416610b8f5760405163e602df0560e01b815260006004820152602401610472565b6001600160a01b038316610bb957604051634a1406b160e11b815260006004820152602401610472565b6001600160a01b038085166000908152600160209081526040808320938716835292905220829055801561077957826001600160a01b0316846001600160a01b03167f8c5be1e5ebec7d5bd14f71427d1e84f3dd0314c0f7b2291e5b200ac8c7c3b92584604051610c2c91815260200190565b60405180910390a350505050565b6001600160a01b038316610c6457604051634b637e8f60e11b815260006004820152602401610472565b6001600160a01b038216610c8e5760405163ec442f0560e01b815260006004820152602401610472565b6106fc838383610cd3565b6001600160a01b038216610cc357604051634b637e8f60e11b815260006004820152602401610472565b610ccf82600083610cd3565b5050565b6001600160a01b038316610cfe578060026000828254610cf39190610ffc565b90915550610d709050565b6001600160a01b03831660009081526020819052604090205481811015610d515760405163391434e360e21b81526001600160a01b03851660048201526024810182905260448101839052606401610472565b6001600160a01b03841660009081526020819052604090209082900390555b6001600160a01b038216610d8c57600280548290039055610dab565b6001600160a01b03821660009081526020819052604090208054820190555b816001600160a01b0316836001600160a01b03167fddf252ad1be2c89b69c2b068fc378daa952ba7f163c4a11628f55a4df523b3ef83604051610df091815260200190565b60405180910390a3505050565b600060208083528351808285015260005b81811015610e2a57858101830151858201604001528201610e0e565b506000604082860101526040601f19601f8301168501019250505092915050565b80356001600160a01b0381168114610e6257600080fd5b919050565b60008060408385031215610e7a57600080fd5b610e8383610e4b565b946020939093013593505050565b600080600060608486031215610ea657600080fd5b610eaf84610e4b565b9250610ebd60208501610e4b565b9150604084013590509250925092565b600080600060608486031215610ee257600080fd5b610eeb84610e4b565b9250610ef960208501610e4b565b9150610f0760408501610e4b565b90509250925092565b600060208284031215610f2257600080fd5b6105ec82610e4b565b600060208284031215610f3d57600080fd5b5035919050565b60008060408385031215610f5757600080fd5b50508035926020909101359150565b60008060408385031215610f7957600080fd5b610f8283610e4b565b9150610f9060208401610e4b565b90509250929050565b600181811c90821680610fad57607f821691505b602082108103610fcd57634e487b7160e01b600052602260045260246000fd5b50919050565b634e487b7160e01b600052601160045260246000fd5b818103818111156103f0576103f0610fd3565b808201808211156103f0576103f0610fd3565b80820281158282048414176103f0576103f0610fd3565b60008261104357634e487b7160e01b600052601260045260246000fd5b50049056fea26469706673582212201676e63981b9525b4d69e627522e4e5614501330148010bfb96e8603e66cc0e264736f6c63430008140033a26469706673582212208e952cd67dbb6b2eaf62941f334fa6398aee21e03d974389ad6aef2d5d54873e64736f6c63430008140033",
  "linkReferences": {},
  "deployedLinkReferences": {}
}