{
  "_format": "hh-sol-artifact-1",
  "contractName": "LiquidityPool",
  "sourceName": "contracts/LiquidityPool.sol",
  "abi": [
    {
      "inputs": [
        {
          "internalType": "address",
          "name": "_platformTokenAddress",
          "type": "address"
        }
      ],
      "stateMutability": "nonpayable",
      "type": "constructor"
    },
    {
      "inputs": [
        {
          "internalType": "address",
          "name": "owner",
          "type": "address"
        }
      ],
      "name": "OwnableInvalidOwner",
      "type": "error"
    },
    {
      "inputs": [
        {
          "internalType": "address",
          "name": "account",
          "type": "address"
        }
      ],
      "name": "OwnableUnauthorizedAccount",
      "type": "error"
    },
    {
      "inputs": [],
      "name": "ReentrancyGuardReentrantCall",
      "type": "error"
    },
    {
      "anonymous": false,
      "inputs": [
        {
          "indexed": true,
          "internalType": "address",
          "name": "provider",
          "type": "address"
        },
        {
          "indexed": true,
          "internalType": "address",
          "name": "tokenAddress",
          "type": "address"
        },
        {
          "indexed": false,
          "internalType": "uint256",
          "name": "tokenAmount",
          "type": "uint256"
        },
        {
          "indexed": false,
          "internalType": "uint256",
          "name": "ethAmount",
          "type": "uint256"
        },
        {
          "indexed": false,
          "internalType": "uint256",
          "name": "lpTokens",
          "type": "uint256"
        }
      ],
      "name": "LiquidityAdded",
      "type": "event"
    },
    {
      "anonymous": false,
      "inputs": [
        {
          "indexed": true,
          "internalType": "address",
          "name": "provider",
          "type": "address"
        },
        {
          "indexed": true,
          "internalType": "address",
          "name": "tokenAddress",
          "type": "address"
        },
        {
          "indexed": false,
          "internalType": "uint256",
          "name": "tokenAmount",
          "type": "uint256"
        },
        {
          "indexed": false,
          "internalType": "uint256",
          "name": "ethAmount",
          "type": "uint256"
        },
        {
          "indexed": false,
          "internalType": "uint256",
          "name": "lpTokens",
          "type": "uint256"
        }
      ],
      "name": "LiquidityRemoved",
      "type": "event"
    },
    {
      "anonymous": false,
      "inputs": [
        {
          "indexed": true,
          "internalType": "address",
          "name": "previousOwner",
          "type": "address"
        },
        {
          "indexed": true,
          "internalType": "address",
          "name": "newOwner",
          "type": "address"
        }
      ],
      "name": "OwnershipTransferred",
      "type": "event"
    },
    {
      "anonymous": false,
      "inputs": [
        {
          "indexed": true,
          "internalType": "address",
          "name": "tokenAddress",
          "type": "address"
        },
        {
          "indexed": false,
          "internalType": "uint256",
          "name": "initialTokenAmount",
          "type": "uint256"
        },
        {
          "indexed": false,
          "internalType": "uint256",
          "name": "initialEthAmount",
          "type": "uint256"
        }
      ],
      "name": "PoolCreated",
      "type": "event"
    },
    {
      "anonymous": false,
      "inputs": [
        {
          "indexed": true,
          "internalType": "address",
          "name": "user",
          "type": "address"
        },
        {
          "indexed": true,
          "internalType": "address",
          "name": "tokenAddress",
          "type": "address"
        },
        {
          "indexed": false,
          "internalType": "uint256",
          "name": "tokenIn",
          "type": "uint256"
        },
        {
          "indexed": false,
          "internalType": "uint256",
          "name": "ethIn",
          "type": "uint256"
        },
        {
          "indexed": false,
          "internalType": "uint256",
          "name": "tokenOut",
          "type": "uint256"
        },
        {
          "indexed": false,
          "internalType": "uint256",
          "name": "ethOut",
          "type": "uint256"
        }
      ],
      "name": "Swap",
      "type": "event"
    },
    {
      "inputs": [
        {
          "internalType": "address",
          "name": "tokenAddress",
          "type": "address"
        },
        {
          "internalType": "uint256",
          "name": "tokenAmount",
          "type": "uint256"
        }
      ],
      "name": "addLiquidity",
      "outputs": [
        {
          "internalType": "uint256",
          "name": "",
          "type": "uint256"
        }
      ],
      "stateMutability": "payable",
      "type": "function"
    },
    {
      "inputs": [
        {
          "internalType": "address",
          "name": "tokenAddress",
          "type": "address"
        },
        {
          "internalType": "uint256",
          "name": "amountIn",
          "type": "uint256"
        },
        {
          "internalType": "bool",
          "name": "isEthToToken",
          "type": "bool"
        }
      ],
      "name": "checkPriceVolatility",
      "outputs": [
        {
          "internalType": "bool",
          "name": "isTooVolatile",
          "type": "bool"
        }
      ],
      "stateMutability": "view",
      "type": "function"
    },
    {
      "inputs": [
        {
          "internalType": "address",
          "name": "tokenAddress",
          "type": "address"
        },
        {
          "internalType": "uint256",
          "name": "tokenAmount",
          "type": "uint256"
        },
        {
          "internalType": "bool",
          "name": "isSpecial",
          "type": "bool"
        }
      ],
      "name": "createPool",
      "outputs": [
        {
          "internalType": "bool",
          "name": "",
          "type": "bool"
        }
      ],
      "stateMutability": "payable",
      "type": "function"
    },
    {
      "inputs": [
        {
          "internalType": "address",
          "name": "",
          "type": "address"
        }
      ],
      "name": "ethReserves",
      "outputs": [
        {
          "internalType": "uint256",
          "name": "",
          "type": "uint256"
        }
      ],
      "stateMutability": "view",
      "type": "function"
    },
    {
      "inputs": [
        {
          "internalType": "uint256",
          "name": "amountIn",
          "type": "uint256"
        },
        {
          "internalType": "uint256",
          "name": "reserveIn",
          "type": "uint256"
        },
        {
          "internalType": "uint256",
          "name": "reserveOut",
          "type": "uint256"
        }
      ],
      "name": "getAmountOut",
      "outputs": [
        {
          "internalType": "uint256",
          "name": "",
          "type": "uint256"
        }
      ],
      "stateMutability": "view",
      "type": "function"
    },
    {
      "inputs": [
        {
          "internalType": "address",
          "name": "tokenAddress",
          "type": "address"
        },
        {
          "internalType": "address",
          "name": "provider",
          "type": "address"
        }
      ],
      "name": "getLpInfo",
      "outputs": [
        {
          "internalType": "uint256",
          "name": "lpBalance",
          "type": "uint256"
        },
        {
          "internalType": "uint256",
          "name": "tokenShare",
          "type": "uint256"
        },
        {
          "internalType": "uint256",
          "name": "ethShare",
          "type": "uint256"
        }
      ],
      "stateMutability": "view",
      "type": "function"
    },
    {
      "inputs": [
        {
          "internalType": "address",
          "name": "tokenAddress",
          "type": "address"
        }
      ],
      "name": "getPoolInfo",
      "outputs": [
        {
          "internalType": "uint256",
          "name": "tokenReserve",
          "type": "uint256"
        },
        {
          "internalType": "uint256",
          "name": "ethReserve",
          "type": "uint256"
        },
        {
          "internalType": "uint256",
          "name": "totalLp",
          "type": "uint256"
        },
        {
          "internalType": "bool",
          "name": "isSpecial",
          "type": "bool"
        },
        {
          "internalType": "uint256",
          "name": "unlockTime",
          "type": "uint256"
        }
      ],
      "stateMutability": "view",
      "type": "function"
    },
    {
      "inputs": [
        {
          "internalType": "address",
          "name": "",
          "type": "address"
        }
      ],
      "name": "isSpecialPool",
      "outputs": [
        {
          "internalType": "bool",
          "name": "",
          "type": "bool"
        }
      ],
      "stateMutability": "view",
      "type": "function"
    },
    {
      "inputs": [
        {
          "internalType": "address",
          "name": "",
          "type": "address"
        }
      ],
      "name": "liquidityUnlockTime",
      "outputs": [
        {
          "internalType": "uint256",
          "name": "",
          "type": "uint256"
        }
      ],
      "stateMutability": "view",
      "type": "function"
    },
    {
      "inputs": [
        {
          "internalType": "address",
          "name": "",
          "type": "address"
        },
        {
          "internalType": "address",
          "name": "",
          "type": "address"
        }
      ],
      "name": "lpBalances",
      "outputs": [
        {
          "internalType": "uint256",
          "name": "",
          "type": "uint256"
        }
      ],
      "stateMutability": "view",
      "type": "function"
    },
    {
      "inputs": [
        {
          "internalType": "address",
          "name": "tokenAddress",
          "type": "address"
        },
        {
          "internalType": "bool",
          "name": "isSpecial",
          "type": "bool"
        }
      ],
      "name": "markSpecialPool",
      "outputs": [],
      "stateMutability": "nonpayable",
      "type": "function"
    },
    {
      "inputs": [],
      "name": "owner",
      "outputs": [
        {
          "internalType": "address",
          "name": "",
          "type": "address"
        }
      ],
      "stateMutability": "view",
      "type": "function"
    },
    {
      "inputs": [],
      "name": "platformTokenAddress",
      "outputs": [
        {
          "internalType": "address",
          "name": "",
          "type": "address"
        }
      ],
      "stateMutability": "view",
      "type": "function"
    },
    {
      "inputs": [
        {
          "internalType": "address",
          "name": "tokenAddress",
          "type": "address"
        },
        {
          "internalType": "uint256",
          "name": "lpTokenAmount",
          "type": "uint256"
        }
      ],
      "name": "removeLiquidity",
      "outputs": [
        {
          "internalType": "uint256",
          "name": "",
          "type": "uint256"
        },
        {
          "internalType": "uint256",
          "name": "",
          "type": "uint256"
        }
      ],
      "stateMutability": "nonpayable",
      "type": "function"
    },
    {
      "inputs": [],
      "name": "renounceOwnership",
      "outputs": [],
      "stateMutability": "nonpayable",
      "type": "function"
    },
    {
      "inputs": [
        {
          "internalType": "uint256",
          "name": "newMultiplier",
          "type": "uint256"
        }
      ],
      "name": "setSpecialPoolMultiplier",
      "outputs": [],
      "stateMutability": "nonpayable",
      "type": "function"
    },
    {
      "inputs": [
        {
          "internalType": "uint256",
          "name": "newFee",
          "type": "uint256"
        }
      ],
      "name": "setTradingFee",
      "outputs": [],
      "stateMutability": "nonpayable",
      "type": "function"
    },
    {
      "inputs": [],
      "name": "specialPoolMultiplier",
      "outputs": [
        {
          "internalType": "uint256",
          "name": "",
          "type": "uint256"
        }
      ],
      "stateMutability": "view",
      "type": "function"
    },
    {
      "inputs": [
        {
          "internalType": "address",
          "name": "tokenAddress",
          "type": "address"
        },
        {
          "internalType": "uint256",
          "name": "minTokenOut",
          "type": "uint256"
        },
        {
          "internalType": "address",
          "name": "recipient",
          "type": "address"
        }
      ],
      "name": "swapETHForToken",
      "outputs": [
        {
          "internalType": "uint256",
          "name": "",
          "type": "uint256"
        }
      ],
      "stateMutability": "payable",
      "type": "function"
    },
    {
      "inputs": [
        {
          "internalType": "address",
          "name": "tokenAddress",
          "type": "address"
        },
        {
          "internalType": "uint256",
          "name": "tokenIn",
          "type": "uint256"
        },
        {
          "internalType": "uint256",
          "name": "minEthOut",
          "type": "uint256"
        }
      ],
      "name": "swapTokenForETH",
      "outputs": [
        {
          "internalType": "uint256",
          "name": "",
          "type": "uint256"
        }
      ],
      "stateMutability": "nonpayable",
      "type": "function"
    },
    {
      "inputs": [
        {
          "internalType": "address",
          "name": "",
          "type": "address"
        }
      ],
      "name": "tokenReserves",
      "outputs": [
        {
          "internalType": "uint256",
          "name": "",
          "type": "uint256"
        }
      ],
      "stateMutability": "view",
      "type": "function"
    },
    {
      "inputs": [
        {
          "internalType": "address",
          "name": "",
          "type": "address"
        }
      ],
      "name": "totalLpTokens",
      "outputs": [
        {
          "internalType": "uint256",
          "name": "",
          "type": "uint256"
        }
      ],
      "stateMutability": "view",
      "type": "function"
    },
    {
      "inputs": [],
      "name": "tradingFee",
      "outputs": [
        {
          "internalType": "uint256",
          "name": "",
          "type": "uint256"
        }
      ],
      "stateMutability": "view",
      "type": "function"
    },
    {
      "inputs": [
        {
          "internalType": "address",
          "name": "newOwner",
          "type": "address"
        }
      ],
      "name": "transferOwnership",
      "outputs": [],
      "stateMutability": "nonpayable",
      "type": "function"
    },
    {
      "stateMutability": "payable",
      "type": "receive"
    }
  ],
  "bytecode": "0x6080604052600360025561012c6003553480156200001c57600080fd5b5060405162001e6e38038062001e6e8339810160408190526200003f9162000145565b33806200006757604051631e4fbdf760e01b8152600060048201526024015b60405180910390fd5b6200007281620000f5565b50600180556001600160a01b038116620000cf5760405162461bcd60e51b815260206004820152601e60248201527f496e76616c696420706c6174666f726d20746f6b656e2061646472657373000060448201526064016200005e565b600480546001600160a01b0319166001600160a01b039290921691909117905562000177565b600080546001600160a01b038381166001600160a01b0319831681178455604051919092169283917f8be0079c531659141344cd1fd0a4f28419497f9722a3daafe3b4186f6b6457e09190a35050565b6000602082840312156200015857600080fd5b81516001600160a01b03811681146200017057600080fd5b9392505050565b611ce780620001876000396000f3fe60806040526004361061014f5760003560e01c8063798e603b116100b6578063a201ccf61161006f578063a201ccf614610444578063ae57ab4014610479578063b0d54bcf146104a9578063bea66a01146104c9578063d79e4a5714610504578063f2fde38b1461052457600080fd5b8063798e603b146103655780638ab32c76146103925780638da5cb5b146103bf578063903e10ba146103f157806392bdce1914610404578063969c42721461042457600080fd5b806356204fca1161010857806356204fca1461029557806356688700146102c257806356f43352146102d55780635762e264146102eb5780636c753eea14610323578063715018a61461035057600080fd5b8063054d50d41461015b57806306bfa9381461018e578063094ab4ac1461021a5780630df81f521461023a57806337288d211461025c5780633c3837e01461027257600080fd5b3661015657005b600080fd5b34801561016757600080fd5b5061017b6101763660046119b0565b610544565b6040519081526020015b60405180910390f35b34801561019a57600080fd5b506101f06101a93660046119f8565b6001600160a01b0316600090815260056020908152604080832054600683528184205460088452828520546009855283862054600a90955292909420549094919260ff1691565b6040805195865260208601949094529284019190915215156060830152608082015260a001610185565b34801561022657600080fd5b5061017b610235366004611a13565b610624565b34801561024657600080fd5b5061025a610255366004611a46565b61089a565b005b34801561026857600080fd5b5061017b60035481565b610285610280366004611a6d565b610935565b6040519015158152602001610185565b3480156102a157600080fd5b5061017b6102b03660046119f8565b60086020526000908152604090205481565b61017b6102d0366004611aad565b610bd0565b3480156102e157600080fd5b5061017b60025481565b3480156102f757600080fd5b5061017b610306366004611ad7565b600760209081526000928352604080842090915290825290205481565b34801561032f57600080fd5b5061017b61033e3660046119f8565b600a6020526000908152604090205481565b34801561035c57600080fd5b5061025a610ee1565b34801561037157600080fd5b5061017b6103803660046119f8565b60056020526000908152604090205481565b34801561039e57600080fd5b5061017b6103ad3660046119f8565b60066020526000908152604090205481565b3480156103cb57600080fd5b506000546001600160a01b03165b6040516001600160a01b039091168152602001610185565b61017b6103ff366004611b0a565b610ef5565b34801561041057600080fd5b5061025a61041f366004611b46565b611125565b34801561043057600080fd5b506004546103d9906001600160a01b031681565b34801561045057600080fd5b5061046461045f366004611aad565b61118d565b60408051928352602083019190915201610185565b34801561048557600080fd5b506102856104943660046119f8565b60096020526000908152604090205460ff1681565b3480156104b557600080fd5b5061025a6104c4366004611a46565b611517565b3480156104d557600080fd5b506104e96104e4366004611ad7565b611564565b60408051938452602084019290925290820152606001610185565b34801561051057600080fd5b5061028561051f366004611a6d565b611605565b34801561053057600080fd5b5061025a61053f3660046119f8565b611739565b600080841161059a5760405162461bcd60e51b815260206004820152601960248201527f496e73756666696369656e7420696e70757420616d6f756e740000000000000060448201526064015b60405180910390fd5b6000831180156105aa5750600082115b6105c65760405162461bcd60e51b815260040161059190611b7d565b60006002546103e86105d89190611bc3565b6105e29086611bd6565b905060006105f08483611bd6565b9050600082610601876103e8611bd6565b61060b9190611bed565b90506106178183611c16565b93505050505b9392505050565b600061062e611777565b6001600160a01b0384166106545760405162461bcd60e51b815260040161059190611c38565b6001600160a01b0384166000908152600860205260409020546106895760405162461bcd60e51b815260040161059190611c67565b600083116106cc5760405162461bcd60e51b815260206004820152601060248201526f4d7573742073656e6420746f6b656e7360801b6044820152606401610591565b6001600160a01b038416600090815260056020908152604080832054600690925282205490916106fd868484610544565b90508481101561074f5760405162461bcd60e51b815260206004820152601a60248201527f496e73756666696369656e74206f757470757420616d6f756e740000000000006044820152606401610591565b6107598684611bed565b6001600160a01b03881660009081526005602052604090205561077c8183611bc3565b6001600160a01b038816600081815260066020526040908190209290925590516323b872dd60e01b8152336004820152306024820152604481018890526323b872dd906064016020604051808303816000875af11580156107e1573d6000803e3d6000fd5b505050506040513d601f19601f820116820180604052508101906108059190611c94565b50604051339082156108fc029083906000818181858888f19350505050158015610833573d6000803e3d6000fd5b506040805187815260006020820181905291810191909152606081018290526001600160a01b0388169033907fb3e2773606abfd36b5bd91394b3a54d1398336c65005baf7bf7a05efeffaf75b906080015b60405180910390a39250505061061d60018055565b6108a26117a1565b60648110156108e85760405162461bcd60e51b81526020600482015260126024820152714d756c7469706c69657220746f6f206c6f7760701b6044820152606401610591565b6101f48111156109305760405162461bcd60e51b815260206004820152601360248201527209aead8e8d2e0d8d2cae440e8dede40d0d2ced606b1b6044820152606401610591565b600355565b600061093f611777565b6001600160a01b0384166109655760405162461bcd60e51b815260040161059190611c38565b6001600160a01b038416600090815260086020526040902054156109c15760405162461bcd60e51b8152602060048201526013602482015272506f6f6c20616c72656164792065786973747360681b6044820152606401610591565b6000831180156109d15750600034115b6109ed5760405162461bcd60e51b815260040161059190611b7d565b8115610a17576001600160a01b0384166000908152600960205260409020805460ff191660011790555b610a24426202a300611bed565b6001600160a01b0385166000818152600a6020526040908190209290925590516323b872dd60e01b8152336004820152306024820152604481018590526323b872dd906064016020604051808303816000875af1158015610a89573d6000803e3d6000fd5b505050506040513d601f19601f82011682018060405250810190610aad9190611c94565b5060006103e8610ac5610ac03487611bd6565b6117ce565b610acf9190611bc3565b6001600160a01b0386166000908152600560209081526040808320889055600682528083203490556007825280832033845290915290208190559050610b176103e882611bed565b6001600160a01b038616600081815260086020526040908190209290925590517f620f7d92e94f37e846b7a037fa45c886f3ab726b58c6531813825a47ad4eec5090610b6f9087903490918252602082015260400190565b60405180910390a2604080518581523460208201529081018290526001600160a01b0386169033907f4a1a2a6176e9646d9e3157f7c2ab3c499f18337c0b0828cfb28e0a61de4a11f79060600160405180910390a35050600180805561061d565b6000610bda611777565b6001600160a01b038316610c005760405162461bcd60e51b815260040161059190611c38565b6001600160a01b038316600090815260086020526040902054610c355760405162461bcd60e51b815260040161059190611c67565b600082118015610c455750600034115b610c615760405162461bcd60e51b815260040161059190611b7d565b6001600160a01b0383166000908152600560209081526040808320546006909252822054909181610c928434611bd6565b610c9c9190611c16565b9050600083610cab8488611bd6565b610cb59190611c16565b9050600080348311610ccb575086905081610cd1565b50829050345b34811015610d1157336108fc610ce78334611bc3565b6040518115909202916000818181858888f19350505050158015610d0f573d6000803e3d6000fd5b505b6040516323b872dd60e01b8152336004820152306024820152604481018390526001600160a01b038a16906323b872dd906064016020604051808303816000875af1158015610d64573d6000803e3d6000fd5b505050506040513d601f19601f82011682018060405250810190610d889190611c94565b506001600160a01b0389166000908152600860205260408120548790610dae9085611bd6565b610db89190611c16565b6001600160a01b038b16600090815260056020526040812080549293508592909190610de5908490611bed565b90915550506001600160a01b038a1660009081526006602052604081208054849290610e12908490611bed565b90915550506001600160a01b038a16600090815260076020908152604080832033845290915281208054839290610e4a908490611bed565b90915550506001600160a01b038a1660009081526008602052604081208054839290610e77908490611bed565b909155505060408051848152602081018490529081018290526001600160a01b038b169033907f4a1a2a6176e9646d9e3157f7c2ab3c499f18337c0b0828cfb28e0a61de4a11f79060600160405180910390a39650505050505050610edb60018055565b92915050565b610ee96117a1565b610ef360006118b6565b565b6000610eff611777565b6001600160a01b038416610f255760405162461bcd60e51b815260040161059190611c38565b6001600160a01b038416600090815260086020526040902054610f5a5760405162461bcd60e51b815260040161059190611c67565b60003411610f9a5760405162461bcd60e51b815260206004820152600d60248201526c09aeae6e840e6cadcc8408aa89609b1b6044820152606401610591565b6001600160a01b03841660009081526005602090815260408083205460069092528220549091610fcb348385610544565b90508581101561101d5760405162461bcd60e51b815260206004820152601a60248201527f496e73756666696369656e74206f757470757420616d6f756e740000000000006044820152606401610591565b6110278184611bc3565b6001600160a01b03881660009081526005602052604090205561104a3483611bed565b6001600160a01b038881166000818152600660205260409081902093909355915163a9059cbb60e01b815290871660048201526024810183905263a9059cbb906044016020604051808303816000875af11580156110ac573d6000803e3d6000fd5b505050506040513d601f19601f820116820180604052508101906110d09190611c94565b5060408051600080825234602083015291810183905260608101919091526001600160a01b0388169033907fb3e2773606abfd36b5bd91394b3a54d1398336c65005baf7bf7a05efeffaf75b90608001610885565b61112d6117a1565b6001600160a01b0382166000908152600860205260409020546111625760405162461bcd60e51b815260040161059190611c67565b6001600160a01b03919091166000908152600960205260409020805460ff1916911515919091179055565b600080611198611777565b6001600160a01b0384166111be5760405162461bcd60e51b815260040161059190611c38565b6000831161120e5760405162461bcd60e51b815260206004820152601760248201527f496e76616c6964204c5020746f6b656e20616d6f756e740000000000000000006044820152606401610591565b6001600160a01b038416600090815260076020908152604080832033845290915290205483111561127a5760405162461bcd60e51b8152602060048201526016602482015275496e73756666696369656e74204c5020746f6b656e7360501b6044820152606401610591565b6001600160a01b0384166000908152600a60205260409020544210156112db5760405162461bcd60e51b8152602060048201526016602482015275131a5c5d5a591a5d1e481cdd1a5b1b081b1bd8dad95960521b6044820152606401610591565b6001600160a01b03841660009081526008602090815260408083205460059092528220546113099086611bd6565b6113139190611c16565b6001600160a01b038616600090815260086020908152604080832054600690925282205492935090916113469087611bd6565b6113509190611c16565b6001600160a01b0387166000908152600760209081526040808320338452909152812080549293508792909190611388908490611bc3565b90915550506001600160a01b038616600090815260086020526040812080548792906113b5908490611bc3565b90915550506001600160a01b038616600090815260056020526040812080548492906113e2908490611bc3565b90915550506001600160a01b0386166000908152600660205260408120805483929061140f908490611bc3565b909155505060405163a9059cbb60e01b8152336004820152602481018390526001600160a01b0387169063a9059cbb906044016020604051808303816000875af1158015611461573d6000803e3d6000fd5b505050506040513d601f19601f820116820180604052508101906114859190611c94565b50604051339082156108fc029083906000818181858888f193505050501580156114b3573d6000803e3d6000fd5b5060408051838152602081018390529081018690526001600160a01b0387169033907fbc7d19d505c7ec4db83f3b51f19fb98c4c8a99922e7839d1ee608dfbee29501b9060600160405180910390a3909250905061151060018055565b9250929050565b61151f6117a1565b601e81111561155f5760405162461bcd60e51b815260206004820152600c60248201526b08ccaca40e8dede40d0d2ced60a31b6044820152606401610591565b600255565b6001600160a01b0380831660008181526007602090815260408083209486168352938152838220549282526008815283822054600590915292812054909283928392909182916115b49083611bd6565b6115be9190611c16565b6001600160a01b0388166000908152600860209081526040808320546006909252909120546115ed9085611bd6565b6115f79190611c16565b935093509350509250925092565b6001600160a01b03831660009081526005602090815260408083205460069092528220548280808461163f85670de0b6b3a7640000611bd6565b6116499190611c16565b905086156116955761165c888587610544565b92506116688386611bc3565b6116728986611bed565b61168490670de0b6b3a7640000611bd6565b61168e9190611c16565b91506116d5565b6116a0888686610544565b92506116ac8886611bed565b6116b68486611bc3565b6116c890670de0b6b3a7640000611bd6565b6116d29190611c16565b91505b60008183111561170657816116ea8185611bc3565b6116f5906064611bd6565b6116ff9190611c16565b9050611729565b816117118482611bc3565b61171c906064611bd6565b6117269190611c16565b90505b6014109998505050505050505050565b6117416117a1565b6001600160a01b03811661176b57604051631e4fbdf760e01b815260006004820152602401610591565b611774816118b6565b50565b60026001540361179a57604051633ee5aeb560e01b815260040160405180910390fd5b6002600155565b6000546001600160a01b03163314610ef35760405163118cdaa760e01b8152336004820152602401610591565b6000816000036117e057506000919050565b600060016117ed84611906565b901c6001901b9050600181848161180657611806611c00565b048201901c9050600181848161181e5761181e611c00565b048201901c9050600181848161183657611836611c00565b048201901c9050600181848161184e5761184e611c00565b048201901c9050600181848161186657611866611c00565b048201901c9050600181848161187e5761187e611c00565b048201901c9050600181848161189657611896611c00565b048201901c905061061d818285816118b0576118b0611c00565b0461199a565b600080546001600160a01b038381166001600160a01b0319831681178455604051919092169283917f8be0079c531659141344cd1fd0a4f28419497f9722a3daafe3b4186f6b6457e09190a35050565b600080608083901c1561191b57608092831c92015b604083901c1561192d57604092831c92015b602083901c1561193f57602092831c92015b601083901c1561195157601092831c92015b600883901c1561196357600892831c92015b600483901c1561197557600492831c92015b600283901c1561198757600292831c92015b600183901c15610edb5760010192915050565b60008183106119a9578161061d565b5090919050565b6000806000606084860312156119c557600080fd5b505081359360208301359350604090920135919050565b80356001600160a01b03811681146119f357600080fd5b919050565b600060208284031215611a0a57600080fd5b61061d826119dc565b600080600060608486031215611a2857600080fd5b611a31846119dc565b95602085013595506040909401359392505050565b600060208284031215611a5857600080fd5b5035919050565b801515811461177457600080fd5b600080600060608486031215611a8257600080fd5b611a8b846119dc565b9250602084013591506040840135611aa281611a5f565b809150509250925092565b60008060408385031215611ac057600080fd5b611ac9836119dc565b946020939093013593505050565b60008060408385031215611aea57600080fd5b611af3836119dc565b9150611b01602084016119dc565b90509250929050565b600080600060608486031215611b1f57600080fd5b611b28846119dc565b925060208401359150611b3d604085016119dc565b90509250925092565b60008060408385031215611b5957600080fd5b611b62836119dc565b91506020830135611b7281611a5f565b809150509250929050565b602080825260169082015275496e73756666696369656e74206c697175696469747960501b604082015260600190565b634e487b7160e01b600052601160045260246000fd5b81810381811115610edb57610edb611bad565b8082028115828204841417610edb57610edb611bad565b80820180821115610edb57610edb611bad565b634e487b7160e01b600052601260045260246000fd5b600082611c3357634e487b7160e01b600052601260045260246000fd5b500490565b602080825260159082015274496e76616c696420746f6b656e206164647265737360581b604082015260600190565b602080825260139082015272141bdbdb08191bd95cc81b9bdd08195e1a5cdd606a1b604082015260600190565b600060208284031215611ca657600080fd5b815161061d81611a5f56fea264697066735822122055d3d94fa386df8d22e167dc477633a710847911fb9df029e86669b0776579cd64736f6c63430008140033",
  "linkReferences": {},
  "deployedLinkReferences": {}
}